{"contracts/FlashLoanManager.sol":{"FlashLoanManager":{"abi":[{"inputs":[{"internalType":"address","name":"_addressesProvider","type":"address"},{"internalType":"address","name":"_treasury","type":"address"},{"internalType":"address","name":"_uniswapV3Router","type":"address"}],"stateMutability":"nonpayable","type":"constructor"},{"inputs":[],"name":"AccessControlBadConfirmation","type":"error"},{"inputs":[{"internalType":"address","name":"account","type":"address"},{"internalType":"bytes32","name":"neededRole","type":"bytes32"}],"name":"AccessControlUnauthorizedAccount","type":"error"},{"inputs":[],"name":"EnforcedPause","type":"error"},{"inputs":[],"name":"ExpectedPause","type":"error"},{"inputs":[],"name":"InsufficientCollateral","type":"error"},{"inputs":[],"name":"InsufficientProfit","type":"error"},{"inputs":[],"name":"InvalidAmount","type":"error"},{"inputs":[],"name":"InvalidDeadline","type":"error"},{"inputs":[],"name":"ReentrancyGuardReentrantCall","type":"error"},{"inputs":[{"internalType":"address","name":"token","type":"address"}],"name":"SafeERC20FailedOperation","type":"error"},{"inputs":[{"internalType":"string","name":"reason","type":"string"}],"name":"SwapFailed","type":"error"},{"inputs":[],"name":"UnauthorizedCaller","type":"error"},{"anonymous":false,"inputs":[{"indexed":true,"internalType":"address","name":"tokenIn","type":"address"},{"indexed":true,"internalType":"address","name":"tokenOut","type":"address"},{"indexed":false,"internalType":"uint256","name":"amountIn","type":"uint256"},{"indexed":false,"internalType":"uint256","name":"amountOut","type":"uint256"},{"indexed":false,"internalType":"uint256","name":"profit","type":"uint256"},{"indexed":false,"internalType":"uint256","name":"timestamp","type":"uint256"}],"name":"ArbitrageExecuted","type":"event"},{"anonymous":false,"inputs":[{"indexed":true,"internalType":"address","name":"user","type":"address"},{"indexed":true,"internalType":"address","name":"token","type":"address"},{"indexed":false,"internalType":"uint256","name":"amount","type":"uint256"}],"name":"CollateralDeposited","type":"event"},{"anonymous":false,"inputs":[{"indexed":true,"internalType":"address","name":"user","type":"address"},{"indexed":true,"internalType":"address","name":"token","type":"address"},{"indexed":false,"internalType":"uint256","name":"amount","type":"uint256"}],"name":"CollateralWithdrawn","type":"event"},{"anonymous":false,"inputs":[{"indexed":true,"internalType":"address","name":"asset","type":"address"},{"indexed":false,"internalType":"uint256","name":"amount","type":"uint256"},{"indexed":false,"internalType":"enum FlashLoanManager.StrategyType","name":"strategy","type":"uint8"},{"indexed":true,"internalType":"address","name":"user","type":"address"},{"indexed":false,"internalType":"uint256","name":"profit","type":"uint256"},{"indexed":false,"internalType":"uint256","name":"serviceFeeCollected","type":"uint256"},{"indexed":false,"internalType":"uint256","name":"timestamp","type":"uint256"}],"name":"FlashLoanExecuted","type":"event"},{"anonymous":false,"inputs":[{"indexed":true,"internalType":"address","name":"user","type":"address"},{"indexed":true,"internalType":"address","name":"collateralAsset","type":"address"},{"indexed":true,"internalType":"address","name":"debtAsset","type":"address"},{"indexed":false,"internalType":"uint256","name":"debtCovered","type":"uint256"},{"indexed":false,"internalType":"uint256","name":"profit","type":"uint256"},{"indexed":false,"internalType":"uint256","name":"timestamp","type":"uint256"}],"name":"LiquidationExecuted","type":"event"},{"anonymous":false,"inputs":[{"indexed":false,"internalType":"address","name":"account","type":"address"}],"name":"Paused","type":"event"},{"anonymous":false,"inputs":[{"indexed":true,"internalType":"bytes32","name":"role","type":"bytes32"},{"indexed":true,"internalType":"bytes32","name":"previousAdminRole","type":"bytes32"},{"indexed":true,"internalType":"bytes32","name":"newAdminRole","type":"bytes32"}],"name":"RoleAdminChanged","type":"event"},{"anonymous":false,"inputs":[{"indexed":true,"internalType":"bytes32","name":"role","type":"bytes32"},{"indexed":true,"internalType":"address","name":"account","type":"address"},{"indexed":true,"internalType":"address","name":"sender","type":"address"}],"name":"RoleGranted","type":"event"},{"anonymous":false,"inputs":[{"indexed":true,"internalType":"bytes32","name":"role","type":"bytes32"},{"indexed":true,"internalType":"address","name":"account","type":"address"},{"indexed":true,"internalType":"address","name":"sender","type":"address"}],"name":"RoleRevoked","type":"event"},{"anonymous":false,"inputs":[{"indexed":false,"internalType":"address","name":"account","type":"address"}],"name":"Unpaused","type":"event"},{"inputs":[],"name":"AAVE_POOL","outputs":[{"internalType":"contract IPool","name":"","type":"address"}],"stateMutability":"view","type":"function"},{"inputs":[],"name":"ADDRESSES_PROVIDER","outputs":[{"internalType":"contract IPoolAddressesProvider","name":"","type":"address"}],"stateMutability":"view","type":"function"},{"inputs":[],"name":"BPS","outputs":[{"internalType":"uint256","name":"","type":"uint256"}],"stateMutability":"view","type":"function"},{"inputs":[],"name":"DEFAULT_ADMIN_ROLE","outputs":[{"internalType":"bytes32","name":"","type":"bytes32"}],"stateMutability":"view","type":"function"},{"inputs":[],"name":"MAX_SERVICE_FEE","outputs":[{"internalType":"uint256","name":"","type":"uint256"}],"stateMutability":"view","type":"function"},{"inputs":[],"name":"OPERATOR_ROLE","outputs":[{"internalType":"bytes32","name":"","type":"bytes32"}],"stateMutability":"view","type":"function"},{"inputs":[],"name":"OWNER_ROLE","outputs":[{"internalType":"bytes32","name":"","type":"bytes32"}],"stateMutability":"view","type":"function"},{"inputs":[{"internalType":"address","name":"","type":"address"}],"name":"authorizedCallers","outputs":[{"internalType":"bool","name":"","type":"bool"}],"stateMutability":"view","type":"function"},{"inputs":[{"internalType":"address","name":"token","type":"address"},{"internalType":"uint256","name":"amount","type":"uint256"}],"name":"depositCollateral","outputs":[],"stateMutability":"nonpayable","type":"function"},{"inputs":[{"internalType":"address","name":"token","type":"address"},{"internalType":"uint256","name":"amount","type":"uint256"}],"name":"emergencyWithdraw","outputs":[],"stateMutability":"nonpayable","type":"function"},{"inputs":[{"internalType":"address","name":"tokenIn","type":"address"},{"internalType":"address","name":"tokenOut","type":"address"},{"internalType":"uint256","name":"amount","type":"uint256"}],"name":"executeArbitrage","outputs":[],"stateMutability":"nonpayable","type":"function"},{"inputs":[{"internalType":"address","name":"asset","type":"address"},{"internalType":"uint256","name":"amount","type":"uint256"}],"name":"executeFlashLoan","outputs":[],"stateMutability":"nonpayable","type":"function"},{"inputs":[{"internalType":"address","name":"borrower","type":"address"},{"internalType":"address","name":"debtAsset","type":"address"},{"internalType":"address","name":"collateralAsset","type":"address"},{"internalType":"uint256","name":"debtAmount","type":"uint256"}],"name":"executeLiquidation","outputs":[],"stateMutability":"nonpayable","type":"function"},{"inputs":[{"internalType":"address","name":"asset","type":"address"},{"internalType":"uint256","name":"amount","type":"uint256"},{"internalType":"uint256","name":"premium","type":"uint256"},{"internalType":"address","name":"initiator","type":"address"},{"internalType":"bytes","name":"params","type":"bytes"}],"name":"executeOperation","outputs":[{"internalType":"bool","name":"","type":"bool"}],"stateMutability":"nonpayable","type":"function"},{"inputs":[{"internalType":"address","name":"oldProtocol","type":"address"},{"internalType":"address","name":"newProtocol","type":"address"},{"internalType":"address","name":"debtAsset","type":"address"},{"internalType":"uint256","name":"amount","type":"uint256"}],"name":"executeRefinance","outputs":[],"stateMutability":"nonpayable","type":"function"},{"inputs":[{"internalType":"address","name":"token","type":"address"}],"name":"getContractBalance","outputs":[{"internalType":"uint256","name":"","type":"uint256"}],"stateMutability":"view","type":"function"},{"inputs":[{"internalType":"bytes32","name":"role","type":"bytes32"}],"name":"getRoleAdmin","outputs":[{"internalType":"bytes32","name":"","type":"bytes32"}],"stateMutability":"view","type":"function"},{"inputs":[{"internalType":"enum FlashLoanManager.StrategyType","name":"strategy","type":"uint8"}],"name":"getStrategyProfit","outputs":[{"internalType":"uint256","name":"","type":"uint256"}],"stateMutability":"view","type":"function"},{"inputs":[{"internalType":"address","name":"asset","type":"address"}],"name":"getTotalProfit","outputs":[{"internalType":"uint256","name":"","type":"uint256"}],"stateMutability":"view","type":"function"},{"inputs":[{"internalType":"address","name":"user","type":"address"},{"internalType":"address","name":"token","type":"address"}],"name":"getUserCollateral","outputs":[{"internalType":"uint256","name":"","type":"uint256"}],"stateMutability":"view","type":"function"},{"inputs":[{"internalType":"bytes32","name":"role","type":"bytes32"},{"internalType":"address","name":"account","type":"address"}],"name":"grantRole","outputs":[],"stateMutability":"nonpayable","type":"function"},{"inputs":[{"internalType":"bytes32","name":"role","type":"bytes32"},{"internalType":"address","name":"account","type":"address"}],"name":"hasRole","outputs":[{"internalType":"bool","name":"","type":"bool"}],"stateMutability":"view","type":"function"},{"inputs":[],"name":"pause","outputs":[],"stateMutability":"nonpayable","type":"function"},{"inputs":[],"name":"paused","outputs":[{"internalType":"bool","name":"","type":"bool"}],"stateMutability":"view","type":"function"},{"inputs":[{"internalType":"bytes32","name":"role","type":"bytes32"},{"internalType":"address","name":"callerConfirmation","type":"address"}],"name":"renounceRole","outputs":[],"stateMutability":"nonpayable","type":"function"},{"inputs":[{"internalType":"bytes32","name":"role","type":"bytes32"},{"internalType":"address","name":"account","type":"address"}],"name":"revokeRole","outputs":[],"stateMutability":"nonpayable","type":"function"},{"inputs":[],"name":"serviceFeeBps","outputs":[{"internalType":"uint256","name":"","type":"uint256"}],"stateMutability":"view","type":"function"},{"inputs":[{"internalType":"address","name":"caller","type":"address"},{"internalType":"bool","name":"authorized","type":"bool"}],"name":"setAuthorizedCaller","outputs":[],"stateMutability":"nonpayable","type":"function"},{"inputs":[{"internalType":"uint256","name":"_bps","type":"uint256"}],"name":"setServiceFee","outputs":[],"stateMutability":"nonpayable","type":"function"},{"inputs":[{"internalType":"address","name":"_treasury","type":"address"}],"name":"setTreasury","outputs":[],"stateMutability":"nonpayable","type":"function"},{"inputs":[{"internalType":"enum FlashLoanManager.StrategyType","name":"","type":"uint8"}],"name":"strategyProfits","outputs":[{"internalType":"uint256","name":"","type":"uint256"}],"stateMutability":"view","type":"function"},{"inputs":[{"internalType":"bytes4","name":"interfaceId","type":"bytes4"}],"name":"supportsInterface","outputs":[{"internalType":"bool","name":"","type":"bool"}],"stateMutability":"view","type":"function"},{"inputs":[{"internalType":"address","name":"","type":"address"}],"name":"totalProfitsByAsset","outputs":[{"internalType":"uint256","name":"","type":"uint256"}],"stateMutability":"view","type":"function"},{"inputs":[],"name":"treasury","outputs":[{"internalType":"address","name":"","type":"address"}],"stateMutability":"view","type":"function"},{"inputs":[],"name":"uniswapV3Router","outputs":[{"internalType":"contract ISwapRouter","name":"","type":"address"}],"stateMutability":"view","type":"function"},{"inputs":[],"name":"unpause","outputs":[],"stateMutability":"nonpayable","type":"function"},{"inputs":[{"internalType":"address","name":"","type":"address"},{"internalType":"address","name":"","type":"address"}],"name":"userCollateral","outputs":[{"internalType":"uint256","name":"","type":"uint256"}],"stateMutability":"view","type":"function"},{"inputs":[{"internalType":"address","name":"token","type":"address"},{"internalType":"uint256","name":"amount","type":"uint256"}],"name":"withdrawCollateral","outputs":[],"stateMutability":"nonpayable","type":"function"},{"stateMutability":"payable","type":"receive"}],"evm":{"bytecode":{"linkReferences":{},"object":"6080604081815234620001f85760608262001e618038038091620000248285620001fd565b833981010312620001f8576200003a8262000237565b9160209062000058836200005084840162000237565b920162000237565b6001600090815560c8600755946001600160a01b03908116929091908315620001c157821680156200018a576200008f336200024c565b506200009b33620002cd565b50620000a73362000370565b50600380546001600160a01b03199081168617909155865163026b1d5f60e01b815290948690829060049082905afa908115620001805788916200012d575b5091839187989694600b969416846004541617600455836006541617600655169060055416176005553383525220600160ff1982541617905551611a3290816200040f8239f35b90508581813d831162000178575b620001478183620001fd565b8101031262000174579183918798969462000165600b979562000237565b929496505091939597620000e6565b8780fd5b503d6200013b565b87513d8a823e3d90fd5b855162461bcd60e51b815260048101869052601060248201526f496e76616c696420747265617375727960801b6044820152606490fd5b855162461bcd60e51b815260048101869052601060248201526f24b73b30b634b210383937bb34b232b960811b6044820152606490fd5b600080fd5b601f909101601f19168101906001600160401b038211908210176200022157604052565b634e487b7160e01b600052604160045260246000fd5b51906001600160a01b0382168203620001f857565b6001600160a01b031660008181527fac33ff75c19e70fe83507db0d683fd3465c996598dc972688b7ace676c89077b602052604081205490919060ff16620002c95781805260026020526040822081835260205260408220600160ff19825416179055339160008051602062001e418339815191528180a4600190565b5090565b6001600160a01b031660008181527fc1bc6a2fac80e57151d2b67a9cff2a0b4025e23176833ff813d9a94a389f8a5360205260408120549091907fb19546dff01e856fb3f010c267a7b1c60363cf8a4664e21cc89c26224620214e9060ff166200036b5780835260026020526040832082845260205260408320600160ff1982541617905560008051602062001e41833981519152339380a4600190565b505090565b6001600160a01b031660008181527f6bc781d8c7f9885ebbb3cefbc18932c491038e2ae5c5b56447891e0bd98ea16360205260408120549091907f97667070c54ef182b0f5858b034beac1b6f3089aa2d3188bb1e8929f4fa9b9299060ff166200036b5780835260026020526040832082845260205260408320600160ff1982541617905560008051602062001e41833981519152339380a460019056fe608080604052600436101561001d575b50361561001b57600080fd5b005b600090813560e01c908163014cce45146114b35750806301ffc9a7146114585780630542975c1461142f578063057243b71461027757806305c3786d146111b757806308a016751461118e57806314d90e1b146111715780631b11d0ff14610e8d578063248a9ca314610e60578063249d39e914610e435780632b92a07d146103c75780632c76d7a614610e1a5780632f2ff15d14610ddc578063350c35e914610d1e57806336568abe14610cd65780633f4ba83a14610c6b57806343ab265f14610bdb578063454bbd2914610b84578063529c551414610b66578063536fff6c14610b275780635c975abb14610b045780635cdf76f814610aa45780636065c245146108b757806361d027b31461088e578063650f84be1461061b57806381d03450146105525780638233fbcb146105195780638456cb59146104bf57806391d148541461047357806395ccea6714610432578063a217fddf14610416578063a55e8668146103c7578063a5d5db0c14610327578063d547741f146102e5578063e58378bb146102aa578063eda7ddf014610277578063f0f44260146101f35763f5b541a60361000f57346101f057806003193601126101f05760206040516000805160206119dd8339815191528152f35b80fd5b50346101f05760203660031901126101f05761020d6114e9565b6102156117dd565b6001600160a01b0316801561023f576bffffffffffffffffffffffff60a01b600654161760065580f35b60405162461bcd60e51b815260206004820152601060248201526f496e76616c696420747265617375727960801b6044820152606490fd5b50346101f05760203660031901126101f0576004359060038210156101f05760206102a183611515565b54604051908152f35b50346101f057806003193601126101f05760206040517fb19546dff01e856fb3f010c267a7b1c60363cf8a4664e21cc89c26224620214e8152f35b50346101f05760403660031901126101f0576103236004356103056114ff565b90808452600260205261031e6001604086200154611857565b6118fd565b5080f35b50346101f05760403660031901126101f0576103416114e9565b6024359081156103b5576001600160a01b03169061036181303385611665565b3383526008602052604083208260005260205260406000206103848282546115d7565b90556040519081527ff1c0dd7e9b98bbff859029005ef89b127af049cd18df1a8d79f0b7e019911e5660203392a380f35b60405163162908e360e11b8152600490fd5b50346101f05760403660031901126101f0576103e16114e9565b60406103eb6114ff565b9260018060a01b03809316815260086020522091166000526020526020604060002054604051908152f35b50346101f057806003193601126101f057602090604051908152f35b50346101f05760403660031901126101f05761047061044f6114e9565b6104576117dd565b600654602435916001600160a01b0391821691166117a1565b80f35b50346101f05760403660031901126101f057604061048f6114ff565b9160043581526002602052209060018060a01b0316600052602052602060ff604060002054166040519015158152f35b50346101f057806003193601126101f0576104d86117dd565b6104e0611647565b600160ff19815416176001557f62e78cea01bee320cd4e420270b5ea74000d11b0c9f74754ebdbfc544b05a2586020604051338152a180f35b50346101f05760203660031901126101f0576020906040906001600160a01b036105416114e9565b168152600983522054604051908152f35b50346101f05761056136611544565b91509150338352600b60205260ff60408420541615806105ea575b6105d857610588611647565b604051908152600260208201528260408201528260608201524260808201527f687c76dd0da5a59b68b988f11cdc5a2202f1f62bcdfd6b64130ef2661516cc6560a03393600180831b031692a380f35b604051635c427cd960e01b8152600490fd5b506000805160206119dd83398151915283526002602052604083203360005260205260ff604060002054161561057c565b50346101f05760603660031901126101f0576106356114e9565b61063d6114ff565b338352600b60205260ff604084205416158061085d575b6105d857610660611647565b61067760443530336001600160a01b038616611665565b60055461069590604435906001600160a01b039081169085166116ae565b6005546001600160a01b0316904261012c8101106108495760405161010081019281841067ffffffffffffffff8511176108335760409384526001600160a01b0385811683528381166020848101918252610bb887860190815230606087019081524261012c01608088019081526044803560a08a0190815260c08a018e815260e08b018f81529c5163414bf38960e01b81529a51891660048c01529651881660248b0152935162ffffff16908901529051851660648801525160848701525160a4860152905160c485015294511660e4830152909290839061010490829088905af19182156108285784926107ee575b507f766728be372c898c13c663da63b59fdfeb89dab2a81d4afe3177eb038ee0dcd2906080906107c084336001600160a01b0384166117a1565b604080516044358152602081019590955284018690524260608501526001600160a01b03908116941692a380f35b9091506020813d602011610820575b8161080a602093836115b5565b8101031261081b5751906080610786565b600080fd5b3d91506107fd565b6040513d86823e3d90fd5b634e487b7160e01b600052604160045260246000fd5b634e487b7160e01b84526011600452602484fd5b506000805160206119dd83398151915283526002602052604083203360005260205260ff6040600020541615610654565b50346101f057806003193601126101f0576006546040516001600160a01b039091168152602090f35b50346101f05760403660031901126101f0576108d16114e9565b602435906002835414610a9257600283556108ea611647565b338352602090600b825260ff6040852054161580610a63575b6105d85782156103b557610e10420192834211610a4f576040519261092784611599565b85845280840190338252604051908082019082821067ffffffffffffffff8311176108335788976109cc92604052888452604088019384526060880190898252608089019081526109b160018060a01b0395868060045416986109986040519d888f998a01526040890190516115fa565b511660608601525160a0608086015260e0850190611607565b915160a08401525160c083015203601f1981018752866115b5565b813b15610a4b57858094610a0f604051978896879586946310ac2ddf60e21b8652306004870152166024850152604484015260a0606484015260a4830190611607565b82608483015203925af18015610a4057610a2c575b506001905580f35b610a3590611585565b6101f0578038610a24565b6040513d84823e3d90fd5b8580fd5b634e487b7160e01b85526011600452602485fd5b506000805160206119dd8339815191528452600282526040842033600052825260ff6040600020541615610903565b604051633ee5aeb560e01b8152600490fd5b50346101f05760203660031901126101f057600435610ac16117dd565b6101f48111610ad05760075580f35b60405162461bcd60e51b815260206004820152600c60248201526b08ccaca40e8dede40d0d2ced60a31b6044820152606490fd5b50346101f057806003193601126101f057602060ff600154166040519015158152f35b50346101f05760203660031901126101f05760209060ff906040906001600160a01b03610b526114e9565b168152600b84522054166040519015158152f35b50346101f057806003193601126101f0576020600754604051908152f35b50346101f05760403660031901126101f057610b9e6114e9565b60243590811515809203610bd757610bb46117dd565b60018060a01b03168252600b602052604082209060ff8019835416911617905580f35b8280fd5b50346101f057602090816003193601126101f0576024826001600160a01b03610c026114e9565b16604051928380926370a0823160e01b82523060048301525afa918215610c5f5791610c32575b50604051908152f35b90508181813d8311610c58575b610c4981836115b5565b8101031261081b575138610c29565b503d610c3f565b604051903d90823e3d90fd5b50346101f057806003193601126101f057610c846117dd565b60015460ff811615610cc45760ff19166001557f5db9ee0a495bf2e6ff9c91a7834c1ba4fdd244a5e8aa4e537bd38aeae4b073aa6020604051338152a180f35b604051638dfc202b60e01b8152600490fd5b50346101f05760403660031901126101f057610cf06114ff565b336001600160a01b03821603610d0c57610323906004356118fd565b60405163334bd91960e11b8152600490fd5b50346101f05760403660031901126101f057610d386114e9565b60243580156103b5573383526008602052604083209160018060a01b031691826000526020528060406000205410610dca57338352600860205260408320826000526020526040600020805490828203918211610a4f5755610d9b8133846117a1565b6040519081527f45892a46e6cef329bb642da6d69846d324db43d19008edc141ed82382eda1bee60203392a380f35b604051633a23d82560e01b8152600490fd5b50346101f05760403660031901126101f057610323600435610dfc6114ff565b908084526002602052610e156001604086200154611857565b61187d565b50346101f057806003193601126101f0576005546040516001600160a01b039091168152602090f35b50346101f057806003193601126101f05760206040516127108152f35b50346101f05760203660031901126101f05760016040602092600435815260028452200154604051908152f35b50346101f05760a03660031901126101f057610ea76114e9565b906024906044908235906001600160a01b036064358181169081900361081b576084359667ffffffffffffffff9081891161116d573660238a01121561116d578860040135828111610a4b5789019288840193368511611132578560045416918233036105d857300361113a5760209a8b81830312611136578a8101359085821161112e579060a09101809203126111325760405193610f4685611599565b8a820135600381101561112e5785528982013595878716870361081b578c860196875260648301358281116111155783019080604383011215611115578c82013592831161111957908d9291610fa860405194601f19601f86011601856115b5565b8284528c8383010111611115578d8260a49594938e8d940183860137830101526040860152608481013560608601520135608084015284610fea8935896115d7565b9216976040516370a0823160e01b81523060048201528b818c818d5afa90811561110a5790849189916110d9575b501061109f57509061102a91886116ae565b5195600387101561108d5750916110727f687c76dd0da5a59b68b988f11cdc5a2202f1f62bcdfd6b64130ef2661516cc65949260a094511696604051938452888401906115fa565b8060408301526060820152426080820152a360405160018152f35b634e487b7160e01b8452602160045283fd5b8a74496e73756666696369656e7420746f20726570617960581b60649260158d6040519462461bcd60e51b86526004860152840152820152fd5b8092508d8092503d8311611103575b6110f281836115b5565b8101031261081b5783905138611018565b503d6110e8565b6040513d8a823e3d90fd5b8980fd5b8c634e487b7160e01b60005260416004526000fd5b8880fd5b8680fd5b8780fd5b60405162461bcd60e51b815260206004820152600d818c01526c2130b21034b734ba34b0ba37b960991b818b0152606490fd5b8480fd5b50346101f057806003193601126101f05760206040516101f48152f35b50346101f057806003193601126101f0576004546040516001600160a01b039091168152602090f35b50346101f0576111c636611544565b9290923385526020600b815260ff6040872054161580611402575b6105d8576111ed611647565b60018060a01b03938460c0816004541695602460405180948193632fe4a15f60e21b835216988960048301525afa801561110a5788906113c5575b670de0b6b3a76400009150101561138057848791169561124a8430338a611665565b611259848760045416896116ae565b856004541695863b15610bd75760a48392604051948593849262a718a960e01b845216998a60048401528b60248401528960448401528860648401528160848401525af1801561137557611360575b506040516370a0823160e01b8152306004820152869291908181602481895afa908115610828578491611329575b509260609291847f77dabbf924a6f11f55b1042aa168a422b93d6d1b6db5d812f2c479c16a512da795611318575b50604051928352820152426040820152a480f35b6113239033896117a1565b38611304565b8094508280949392503d8311611359575b61134481836115b5565b8101031261081b5791518692919060606112d6565b503d61133a565b61136d9096919296611585565b9490386112a8565b6040513d89823e3d90fd5b60405162461bcd60e51b815260048101839052601760248201527f546172676574206e6f74206c6971756964617461626c650000000000000000006044820152606490fd5b5060c0813d60c0116113fa575b816113df60c093836115b5565b810103126111365760a0670de0b6b3a7640000910151611228565b3d91506113d2565b506000805160206119dd83398151915286526002815260408620338752815260ff604087205416156111e1565b50346101f057806003193601126101f0576003546040516001600160a01b039091168152602090f35b50346101f05760203660031901126101f05760043563ffffffff60e01b81168091036114af57602090637965db0b60e01b811490811561149e575b506040519015158152f35b6301ffc9a760e01b14905082611493565b5080fd5b9050346114af5760203660031901126114af576020916040906001600160a01b036114dc6114e9565b1681526009845220548152f35b600435906001600160a01b038216820361081b57565b602435906001600160a01b038216820361081b57565b600381101561152e57600052600a602052604060002090565b634e487b7160e01b600052602160045260246000fd5b608090600319011261081b576001600160a01b03600435818116810361081b5791602435828116810361081b5791604435908116810361081b579060643590565b67ffffffffffffffff811161083357604052565b60a0810190811067ffffffffffffffff82111761083357604052565b90601f8019910116810190811067ffffffffffffffff82111761083357604052565b919082018092116115e457565b634e487b7160e01b600052601160045260246000fd5b90600382101561152e5752565b919082519283825260005b848110611633575050826000602080949584010152601f8019910116010190565b602081830181015184830182015201611612565b60ff6001541661165357565b60405163d93c066560e01b8152600490fd5b6040516323b872dd60e01b60208201526001600160a01b0392831660248201529290911660448301526064808301939093529181526116ac916116a782611599565b611974565b565b60405163095ea7b360e01b602082018181526001600160a01b0385166024840152604480840196909652948252949390926116ea6064856115b5565b60206000809386519082875af182513d8261177c575b505015611710575b505050509050565b60405160208101969096526001600160a01b0316602486015260448086018290528552608085019067ffffffffffffffff821186831017611768575061175e93946116a79160405282611974565b8038808080611708565b634e487b7160e01b81526041600452602490fd5b90915061179957506001600160a01b0383163b15155b3880611700565b600114611792565b60405163a9059cbb60e01b60208201526001600160a01b039290921660248301526044808301939093529181526116ac916116a76064836115b5565b3360009081527fc1bc6a2fac80e57151d2b67a9cff2a0b4025e23176833ff813d9a94a389f8a5360205260409020547fb19546dff01e856fb3f010c267a7b1c60363cf8a4664e21cc89c26224620214e9060ff16156118395750565b6044906040519063e2517d3f60e01b82523360048301526024820152fd5b80600052600260205260406000203360005260205260ff60406000205416156118395750565b906000918083526002602052604083209160018060a01b03169182845260205260ff604084205416156000146118f85780835260026020526040832082845260205260408320600160ff198254161790557f2f8788117e7eff1d82e926ec794901d17c78024a50270940304540a733656f0d339380a4600190565b505090565b906000918083526002602052604083209160018060a01b03169182845260205260ff6040842054166000146118f8578083526002602052604083208284526020526040832060ff1981541690557ff6391f5c32d9c69d2a47ea670b442974b53935d1edc7fd64eb21e047a839171b339380a4600190565b906000602091828151910182855af1156119d0576000513d6119c757506001600160a01b0381163b155b6119a55750565b604051635274afe760e01b81526001600160a01b039091166004820152602490fd5b6001141561199e565b6040513d6000823e3d90fdfe97667070c54ef182b0f5858b034beac1b6f3089aa2d3188bb1e8929f4fa9b929a2646970667358221220c736082f7d438f23af139bebfab3d91c1ff35de14024f50ab169977e15dc84cb64736f6c634300081800332f8788117e7eff1d82e926ec794901d17c78024a50270940304540a733656f0d","opcodes":"PUSH1 0x80 PUSH1 0x40 DUP2 DUP2 MSTORE CALLVALUE PUSH3 0x1F8 JUMPI PUSH1 0x60 DUP3 PUSH3 0x1E61 DUP1 CODESIZE SUB DUP1 SWAP2 PUSH3 0x24 DUP3 DUP6 PUSH3 0x1FD JUMP JUMPDEST DUP4 CODECOPY DUP2 ADD SUB SLT PUSH3 0x1F8 JUMPI PUSH3 0x3A DUP3 PUSH3 0x237 JUMP JUMPDEST SWAP2 PUSH1 0x20 SWAP1 PUSH3 0x58 DUP4 PUSH3 0x50 DUP5 DUP5 ADD PUSH3 0x237 JUMP JUMPDEST SWAP3 ADD PUSH3 0x237 JUMP JUMPDEST PUSH1 0x1 PUSH1 0x0 SWAP1 DUP2 SSTORE PUSH1 0xC8 PUSH1 0x7 SSTORE SWAP5 PUSH1 0x1 PUSH1 0x1 PUSH1 0xA0 SHL SUB SWAP1 DUP2 AND SWAP3 SWAP1 SWAP2 SWAP1 DUP4 ISZERO PUSH3 0x1C1 JUMPI DUP3 AND DUP1 ISZERO PUSH3 0x18A JUMPI PUSH3 0x8F CALLER PUSH3 0x24C JUMP JUMPDEST POP PUSH3 0x9B CALLER PUSH3 0x2CD JUMP JUMPDEST POP PUSH3 0xA7 CALLER PUSH3 0x370 JUMP JUMPDEST POP PUSH1 0x3 DUP1 SLOAD PUSH1 0x1 PUSH1 0x1 PUSH1 0xA0 SHL SUB NOT SWAP1 DUP2 AND DUP7 OR SWAP1 SWAP2 SSTORE DUP7 MLOAD PUSH4 0x26B1D5F PUSH1 0xE0 SHL DUP2 MSTORE SWAP1 SWAP5 DUP7 SWAP1 DUP3 SWAP1 PUSH1 0x4 SWAP1 DUP3 SWAP1 GAS STATICCALL SWAP1 DUP2 ISZERO PUSH3 0x180 JUMPI DUP9 SWAP2 PUSH3 0x12D JUMPI JUMPDEST POP SWAP2 DUP4 SWAP2 DUP8 SWAP9 SWAP7 SWAP5 PUSH1 0xB SWAP7 SWAP5 AND DUP5 PUSH1 0x4 SLOAD AND OR PUSH1 0x4 SSTORE DUP4 PUSH1 0x6 SLOAD AND OR PUSH1 0x6 SSTORE AND SWAP1 PUSH1 0x5 SLOAD AND OR PUSH1 0x5 SSTORE CALLER DUP4 MSTORE MSTORE KECCAK256 PUSH1 0x1 PUSH1 0xFF NOT DUP3 SLOAD AND OR SWAP1 SSTORE MLOAD PUSH2 0x1A32 SWAP1 DUP2 PUSH3 0x40F DUP3 CODECOPY RETURN JUMPDEST SWAP1 POP DUP6 DUP2 DUP2 RETURNDATASIZE DUP4 GT PUSH3 0x178 JUMPI JUMPDEST PUSH3 0x147 DUP2 DUP4 PUSH3 0x1FD JUMP JUMPDEST DUP2 ADD SUB SLT PUSH3 0x174 JUMPI SWAP2 DUP4 SWAP2 DUP8 SWAP9 SWAP7 SWAP5 PUSH3 0x165 PUSH1 0xB SWAP8 SWAP6 PUSH3 0x237 JUMP JUMPDEST SWAP3 SWAP5 SWAP7 POP POP SWAP2 SWAP4 SWAP6 SWAP8 PUSH3 0xE6 JUMP JUMPDEST DUP8 DUP1 REVERT JUMPDEST POP RETURNDATASIZE PUSH3 0x13B JUMP JUMPDEST DUP8 MLOAD RETURNDATASIZE DUP11 DUP3 RETURNDATACOPY RETURNDATASIZE SWAP1 REVERT JUMPDEST DUP6 MLOAD PUSH3 0x461BCD PUSH1 0xE5 SHL DUP2 MSTORE PUSH1 0x4 DUP2 ADD DUP7 SWAP1 MSTORE PUSH1 0x10 PUSH1 0x24 DUP3 ADD MSTORE PUSH16 0x496E76616C6964207472656173757279 PUSH1 0x80 SHL PUSH1 0x44 DUP3 ADD MSTORE PUSH1 0x64 SWAP1 REVERT JUMPDEST DUP6 MLOAD PUSH3 0x461BCD PUSH1 0xE5 SHL DUP2 MSTORE PUSH1 0x4 DUP2 ADD DUP7 SWAP1 MSTORE PUSH1 0x10 PUSH1 0x24 DUP3 ADD MSTORE PUSH16 0x24B73B30B634B210383937BB34B232B9 PUSH1 0x81 SHL PUSH1 0x44 DUP3 ADD MSTORE PUSH1 0x64 SWAP1 REVERT JUMPDEST PUSH1 0x0 DUP1 REVERT JUMPDEST PUSH1 0x1F SWAP1 SWAP2 ADD PUSH1 0x1F NOT AND DUP2 ADD SWAP1 PUSH1 0x1 PUSH1 0x1 PUSH1 0x40 SHL SUB DUP3 GT SWAP1 DUP3 LT OR PUSH3 0x221 JUMPI PUSH1 0x40 MSTORE JUMP JUMPDEST PUSH4 0x4E487B71 PUSH1 0xE0 SHL PUSH1 0x0 MSTORE PUSH1 0x41 PUSH1 0x4 MSTORE PUSH1 0x24 PUSH1 0x0 REVERT JUMPDEST MLOAD SWAP1 PUSH1 0x1 PUSH1 0x1 PUSH1 0xA0 SHL SUB DUP3 AND DUP3 SUB PUSH3 0x1F8 JUMPI JUMP JUMPDEST PUSH1 0x1 PUSH1 0x1 PUSH1 0xA0 SHL SUB AND PUSH1 0x0 DUP2 DUP2 MSTORE PUSH32 0xAC33FF75C19E70FE83507DB0D683FD3465C996598DC972688B7ACE676C89077B PUSH1 0x20 MSTORE PUSH1 0x40 DUP2 KECCAK256 SLOAD SWAP1 SWAP2 SWAP1 PUSH1 0xFF AND PUSH3 0x2C9 JUMPI DUP2 DUP1 MSTORE PUSH1 0x2 PUSH1 0x20 MSTORE PUSH1 0x40 DUP3 KECCAK256 DUP2 DUP4 MSTORE PUSH1 0x20 MSTORE PUSH1 0x40 DUP3 KECCAK256 PUSH1 0x1 PUSH1 0xFF NOT DUP3 SLOAD AND OR SWAP1 SSTORE CALLER SWAP2 PUSH1 0x0 DUP1 MLOAD PUSH1 0x20 PUSH3 0x1E41 DUP4 CODECOPY DUP2 MLOAD SWAP2 MSTORE DUP2 DUP1 LOG4 PUSH1 0x1 SWAP1 JUMP JUMPDEST POP SWAP1 JUMP JUMPDEST PUSH1 0x1 PUSH1 0x1 PUSH1 0xA0 SHL SUB AND PUSH1 0x0 DUP2 DUP2 MSTORE PUSH32 0xC1BC6A2FAC80E57151D2B67A9CFF2A0B4025E23176833FF813D9A94A389F8A53 PUSH1 0x20 MSTORE PUSH1 0x40 DUP2 KECCAK256 SLOAD SWAP1 SWAP2 SWAP1 PUSH32 0xB19546DFF01E856FB3F010C267A7B1C60363CF8A4664E21CC89C26224620214E SWAP1 PUSH1 0xFF AND PUSH3 0x36B JUMPI DUP1 DUP4 MSTORE PUSH1 0x2 PUSH1 0x20 MSTORE PUSH1 0x40 DUP4 KECCAK256 DUP3 DUP5 MSTORE PUSH1 0x20 MSTORE PUSH1 0x40 DUP4 KECCAK256 PUSH1 0x1 PUSH1 0xFF NOT DUP3 SLOAD AND OR SWAP1 SSTORE PUSH1 0x0 DUP1 MLOAD PUSH1 0x20 PUSH3 0x1E41 DUP4 CODECOPY DUP2 MLOAD SWAP2 MSTORE CALLER SWAP4 DUP1 LOG4 PUSH1 0x1 SWAP1 JUMP JUMPDEST POP POP SWAP1 JUMP JUMPDEST PUSH1 0x1 PUSH1 0x1 PUSH1 0xA0 SHL SUB AND PUSH1 0x0 DUP2 DUP2 MSTORE PUSH32 0x6BC781D8C7F9885EBBB3CEFBC18932C491038E2AE5C5B56447891E0BD98EA163 PUSH1 0x20 MSTORE PUSH1 0x40 DUP2 KECCAK256 SLOAD SWAP1 SWAP2 SWAP1 PUSH32 0x97667070C54EF182B0F5858B034BEAC1B6F3089AA2D3188BB1E8929F4FA9B929 SWAP1 PUSH1 0xFF AND PUSH3 0x36B JUMPI DUP1 DUP4 MSTORE PUSH1 0x2 PUSH1 0x20 MSTORE PUSH1 0x40 DUP4 KECCAK256 DUP3 DUP5 MSTORE PUSH1 0x20 MSTORE PUSH1 0x40 DUP4 KECCAK256 PUSH1 0x1 PUSH1 0xFF NOT DUP3 SLOAD AND OR SWAP1 SSTORE PUSH1 0x0 DUP1 MLOAD PUSH1 0x20 PUSH3 0x1E41 DUP4 CODECOPY DUP2 MLOAD SWAP2 MSTORE CALLER SWAP4 DUP1 LOG4 PUSH1 0x1 SWAP1 JUMP INVALID PUSH1 0x80 DUP1 PUSH1 0x40 MSTORE PUSH1 0x4 CALLDATASIZE LT ISZERO PUSH2 0x1D JUMPI JUMPDEST POP CALLDATASIZE ISZERO PUSH2 0x1B JUMPI PUSH1 0x0 DUP1 REVERT JUMPDEST STOP JUMPDEST PUSH1 0x0 SWAP1 DUP2 CALLDATALOAD PUSH1 0xE0 SHR SWAP1 DUP2 PUSH4 0x14CCE45 EQ PUSH2 0x14B3 JUMPI POP DUP1 PUSH4 0x1FFC9A7 EQ PUSH2 0x1458 JUMPI DUP1 PUSH4 0x542975C EQ PUSH2 0x142F JUMPI DUP1 PUSH4 0x57243B7 EQ PUSH2 0x277 JUMPI DUP1 PUSH4 0x5C3786D EQ PUSH2 0x11B7 JUMPI DUP1 PUSH4 0x8A01675 EQ PUSH2 0x118E JUMPI DUP1 PUSH4 0x14D90E1B EQ PUSH2 0x1171 JUMPI DUP1 PUSH4 0x1B11D0FF EQ PUSH2 0xE8D JUMPI DUP1 PUSH4 0x248A9CA3 EQ PUSH2 0xE60 JUMPI DUP1 PUSH4 0x249D39E9 EQ PUSH2 0xE43 JUMPI DUP1 PUSH4 0x2B92A07D EQ PUSH2 0x3C7 JUMPI DUP1 PUSH4 0x2C76D7A6 EQ PUSH2 0xE1A JUMPI DUP1 PUSH4 0x2F2FF15D EQ PUSH2 0xDDC JUMPI DUP1 PUSH4 0x350C35E9 EQ PUSH2 0xD1E JUMPI DUP1 PUSH4 0x36568ABE EQ PUSH2 0xCD6 JUMPI DUP1 PUSH4 0x3F4BA83A EQ PUSH2 0xC6B JUMPI DUP1 PUSH4 0x43AB265F EQ PUSH2 0xBDB JUMPI DUP1 PUSH4 0x454BBD29 EQ PUSH2 0xB84 JUMPI DUP1 PUSH4 0x529C5514 EQ PUSH2 0xB66 JUMPI DUP1 PUSH4 0x536FFF6C EQ PUSH2 0xB27 JUMPI DUP1 PUSH4 0x5C975ABB EQ PUSH2 0xB04 JUMPI DUP1 PUSH4 0x5CDF76F8 EQ PUSH2 0xAA4 JUMPI DUP1 PUSH4 0x6065C245 EQ PUSH2 0x8B7 JUMPI DUP1 PUSH4 0x61D027B3 EQ PUSH2 0x88E JUMPI DUP1 PUSH4 0x650F84BE EQ PUSH2 0x61B JUMPI DUP1 PUSH4 0x81D03450 EQ PUSH2 0x552 JUMPI DUP1 PUSH4 0x8233FBCB EQ PUSH2 0x519 JUMPI DUP1 PUSH4 0x8456CB59 EQ PUSH2 0x4BF JUMPI DUP1 PUSH4 0x91D14854 EQ PUSH2 0x473 JUMPI DUP1 PUSH4 0x95CCEA67 EQ PUSH2 0x432 JUMPI DUP1 PUSH4 0xA217FDDF EQ PUSH2 0x416 JUMPI DUP1 PUSH4 0xA55E8668 EQ PUSH2 0x3C7 JUMPI DUP1 PUSH4 0xA5D5DB0C EQ PUSH2 0x327 JUMPI DUP1 PUSH4 0xD547741F EQ PUSH2 0x2E5 JUMPI DUP1 PUSH4 0xE58378BB EQ PUSH2 0x2AA JUMPI DUP1 PUSH4 0xEDA7DDF0 EQ PUSH2 0x277 JUMPI DUP1 PUSH4 0xF0F44260 EQ PUSH2 0x1F3 JUMPI PUSH4 0xF5B541A6 SUB PUSH2 0xF JUMPI CALLVALUE PUSH2 0x1F0 JUMPI DUP1 PUSH1 0x3 NOT CALLDATASIZE ADD SLT PUSH2 0x1F0 JUMPI PUSH1 0x20 PUSH1 0x40 MLOAD PUSH1 0x0 DUP1 MLOAD PUSH1 0x20 PUSH2 0x19DD DUP4 CODECOPY DUP2 MLOAD SWAP2 MSTORE DUP2 MSTORE RETURN JUMPDEST DUP1 REVERT JUMPDEST POP CALLVALUE PUSH2 0x1F0 JUMPI PUSH1 0x20 CALLDATASIZE PUSH1 0x3 NOT ADD SLT PUSH2 0x1F0 JUMPI PUSH2 0x20D PUSH2 0x14E9 JUMP JUMPDEST PUSH2 0x215 PUSH2 0x17DD JUMP JUMPDEST PUSH1 0x1 PUSH1 0x1 PUSH1 0xA0 SHL SUB AND DUP1 ISZERO PUSH2 0x23F JUMPI PUSH12 0xFFFFFFFFFFFFFFFFFFFFFFFF PUSH1 0xA0 SHL PUSH1 0x6 SLOAD AND OR PUSH1 0x6 SSTORE DUP1 RETURN JUMPDEST PUSH1 0x40 MLOAD PUSH3 0x461BCD PUSH1 0xE5 SHL DUP2 MSTORE PUSH1 0x20 PUSH1 0x4 DUP3 ADD MSTORE PUSH1 0x10 PUSH1 0x24 DUP3 ADD MSTORE PUSH16 0x496E76616C6964207472656173757279 PUSH1 0x80 SHL PUSH1 0x44 DUP3 ADD MSTORE PUSH1 0x64 SWAP1 REVERT JUMPDEST POP CALLVALUE PUSH2 0x1F0 JUMPI PUSH1 0x20 CALLDATASIZE PUSH1 0x3 NOT ADD SLT PUSH2 0x1F0 JUMPI PUSH1 0x4 CALLDATALOAD SWAP1 PUSH1 0x3 DUP3 LT ISZERO PUSH2 0x1F0 JUMPI PUSH1 0x20 PUSH2 0x2A1 DUP4 PUSH2 0x1515 JUMP JUMPDEST SLOAD PUSH1 0x40 MLOAD SWAP1 DUP2 MSTORE RETURN JUMPDEST POP CALLVALUE PUSH2 0x1F0 JUMPI DUP1 PUSH1 0x3 NOT CALLDATASIZE ADD SLT PUSH2 0x1F0 JUMPI PUSH1 0x20 PUSH1 0x40 MLOAD PUSH32 0xB19546DFF01E856FB3F010C267A7B1C60363CF8A4664E21CC89C26224620214E DUP2 MSTORE RETURN JUMPDEST POP CALLVALUE PUSH2 0x1F0 JUMPI PUSH1 0x40 CALLDATASIZE PUSH1 0x3 NOT ADD SLT PUSH2 0x1F0 JUMPI PUSH2 0x323 PUSH1 0x4 CALLDATALOAD PUSH2 0x305 PUSH2 0x14FF JUMP JUMPDEST SWAP1 DUP1 DUP5 MSTORE PUSH1 0x2 PUSH1 0x20 MSTORE PUSH2 0x31E PUSH1 0x1 PUSH1 0x40 DUP7 KECCAK256 ADD SLOAD PUSH2 0x1857 JUMP JUMPDEST PUSH2 0x18FD JUMP JUMPDEST POP DUP1 RETURN JUMPDEST POP CALLVALUE PUSH2 0x1F0 JUMPI PUSH1 0x40 CALLDATASIZE PUSH1 0x3 NOT ADD SLT PUSH2 0x1F0 JUMPI PUSH2 0x341 PUSH2 0x14E9 JUMP JUMPDEST PUSH1 0x24 CALLDATALOAD SWAP1 DUP2 ISZERO PUSH2 0x3B5 JUMPI PUSH1 0x1 PUSH1 0x1 PUSH1 0xA0 SHL SUB AND SWAP1 PUSH2 0x361 DUP2 ADDRESS CALLER DUP6 PUSH2 0x1665 JUMP JUMPDEST CALLER DUP4 MSTORE PUSH1 0x8 PUSH1 0x20 MSTORE PUSH1 0x40 DUP4 KECCAK256 DUP3 PUSH1 0x0 MSTORE PUSH1 0x20 MSTORE PUSH1 0x40 PUSH1 0x0 KECCAK256 PUSH2 0x384 DUP3 DUP3 SLOAD PUSH2 0x15D7 JUMP JUMPDEST SWAP1 SSTORE PUSH1 0x40 MLOAD SWAP1 DUP2 MSTORE PUSH32 0xF1C0DD7E9B98BBFF859029005EF89B127AF049CD18DF1A8D79F0B7E019911E56 PUSH1 0x20 CALLER SWAP3 LOG3 DUP1 RETURN JUMPDEST PUSH1 0x40 MLOAD PUSH4 0x162908E3 PUSH1 0xE1 SHL DUP2 MSTORE PUSH1 0x4 SWAP1 REVERT JUMPDEST POP CALLVALUE PUSH2 0x1F0 JUMPI PUSH1 0x40 CALLDATASIZE PUSH1 0x3 NOT ADD SLT PUSH2 0x1F0 JUMPI PUSH2 0x3E1 PUSH2 0x14E9 JUMP JUMPDEST PUSH1 0x40 PUSH2 0x3EB PUSH2 0x14FF JUMP JUMPDEST SWAP3 PUSH1 0x1 DUP1 PUSH1 0xA0 SHL SUB DUP1 SWAP4 AND DUP2 MSTORE PUSH1 0x8 PUSH1 0x20 MSTORE KECCAK256 SWAP2 AND PUSH1 0x0 MSTORE PUSH1 0x20 MSTORE PUSH1 0x20 PUSH1 0x40 PUSH1 0x0 KECCAK256 SLOAD PUSH1 0x40 MLOAD SWAP1 DUP2 MSTORE RETURN JUMPDEST POP CALLVALUE PUSH2 0x1F0 JUMPI DUP1 PUSH1 0x3 NOT CALLDATASIZE ADD SLT PUSH2 0x1F0 JUMPI PUSH1 0x20 SWAP1 PUSH1 0x40 MLOAD SWAP1 DUP2 MSTORE RETURN JUMPDEST POP CALLVALUE PUSH2 0x1F0 JUMPI PUSH1 0x40 CALLDATASIZE PUSH1 0x3 NOT ADD SLT PUSH2 0x1F0 JUMPI PUSH2 0x470 PUSH2 0x44F PUSH2 0x14E9 JUMP JUMPDEST PUSH2 0x457 PUSH2 0x17DD JUMP JUMPDEST PUSH1 0x6 SLOAD PUSH1 0x24 CALLDATALOAD SWAP2 PUSH1 0x1 PUSH1 0x1 PUSH1 0xA0 SHL SUB SWAP2 DUP3 AND SWAP2 AND PUSH2 0x17A1 JUMP JUMPDEST DUP1 RETURN JUMPDEST POP CALLVALUE PUSH2 0x1F0 JUMPI PUSH1 0x40 CALLDATASIZE PUSH1 0x3 NOT ADD SLT PUSH2 0x1F0 JUMPI PUSH1 0x40 PUSH2 0x48F PUSH2 0x14FF JUMP JUMPDEST SWAP2 PUSH1 0x4 CALLDATALOAD DUP2 MSTORE PUSH1 0x2 PUSH1 0x20 MSTORE KECCAK256 SWAP1 PUSH1 0x1 DUP1 PUSH1 0xA0 SHL SUB AND PUSH1 0x0 MSTORE PUSH1 0x20 MSTORE PUSH1 0x20 PUSH1 0xFF PUSH1 0x40 PUSH1 0x0 KECCAK256 SLOAD AND PUSH1 0x40 MLOAD SWAP1 ISZERO ISZERO DUP2 MSTORE RETURN JUMPDEST POP CALLVALUE PUSH2 0x1F0 JUMPI DUP1 PUSH1 0x3 NOT CALLDATASIZE ADD SLT PUSH2 0x1F0 JUMPI PUSH2 0x4D8 PUSH2 0x17DD JUMP JUMPDEST PUSH2 0x4E0 PUSH2 0x1647 JUMP JUMPDEST PUSH1 0x1 PUSH1 0xFF NOT DUP2 SLOAD AND OR PUSH1 0x1 SSTORE PUSH32 0x62E78CEA01BEE320CD4E420270B5EA74000D11B0C9F74754EBDBFC544B05A258 PUSH1 0x20 PUSH1 0x40 MLOAD CALLER DUP2 MSTORE LOG1 DUP1 RETURN JUMPDEST POP CALLVALUE PUSH2 0x1F0 JUMPI PUSH1 0x20 CALLDATASIZE PUSH1 0x3 NOT ADD SLT PUSH2 0x1F0 JUMPI PUSH1 0x20 SWAP1 PUSH1 0x40 SWAP1 PUSH1 0x1 PUSH1 0x1 PUSH1 0xA0 SHL SUB PUSH2 0x541 PUSH2 0x14E9 JUMP JUMPDEST AND DUP2 MSTORE PUSH1 0x9 DUP4 MSTORE KECCAK256 SLOAD PUSH1 0x40 MLOAD SWAP1 DUP2 MSTORE RETURN JUMPDEST POP CALLVALUE PUSH2 0x1F0 JUMPI PUSH2 0x561 CALLDATASIZE PUSH2 0x1544 JUMP JUMPDEST SWAP2 POP SWAP2 POP CALLER DUP4 MSTORE PUSH1 0xB PUSH1 0x20 MSTORE PUSH1 0xFF PUSH1 0x40 DUP5 KECCAK256 SLOAD AND ISZERO DUP1 PUSH2 0x5EA JUMPI JUMPDEST PUSH2 0x5D8 JUMPI PUSH2 0x588 PUSH2 0x1647 JUMP JUMPDEST PUSH1 0x40 MLOAD SWAP1 DUP2 MSTORE PUSH1 0x2 PUSH1 0x20 DUP3 ADD MSTORE DUP3 PUSH1 0x40 DUP3 ADD MSTORE DUP3 PUSH1 0x60 DUP3 ADD MSTORE TIMESTAMP PUSH1 0x80 DUP3 ADD MSTORE PUSH32 0x687C76DD0DA5A59B68B988F11CDC5A2202F1F62BCDFD6B64130EF2661516CC65 PUSH1 0xA0 CALLER SWAP4 PUSH1 0x1 DUP1 DUP4 SHL SUB AND SWAP3 LOG3 DUP1 RETURN JUMPDEST PUSH1 0x40 MLOAD PUSH4 0x5C427CD9 PUSH1 0xE0 SHL DUP2 MSTORE PUSH1 0x4 SWAP1 REVERT JUMPDEST POP PUSH1 0x0 DUP1 MLOAD PUSH1 0x20 PUSH2 0x19DD DUP4 CODECOPY DUP2 MLOAD SWAP2 MSTORE DUP4 MSTORE PUSH1 0x2 PUSH1 0x20 MSTORE PUSH1 0x40 DUP4 KECCAK256 CALLER PUSH1 0x0 MSTORE PUSH1 0x20 MSTORE PUSH1 0xFF PUSH1 0x40 PUSH1 0x0 KECCAK256 SLOAD AND ISZERO PUSH2 0x57C JUMP JUMPDEST POP CALLVALUE PUSH2 0x1F0 JUMPI PUSH1 0x60 CALLDATASIZE PUSH1 0x3 NOT ADD SLT PUSH2 0x1F0 JUMPI PUSH2 0x635 PUSH2 0x14E9 JUMP JUMPDEST PUSH2 0x63D PUSH2 0x14FF JUMP JUMPDEST CALLER DUP4 MSTORE PUSH1 0xB PUSH1 0x20 MSTORE PUSH1 0xFF PUSH1 0x40 DUP5 KECCAK256 SLOAD AND ISZERO DUP1 PUSH2 0x85D JUMPI JUMPDEST PUSH2 0x5D8 JUMPI PUSH2 0x660 PUSH2 0x1647 JUMP JUMPDEST PUSH2 0x677 PUSH1 0x44 CALLDATALOAD ADDRESS CALLER PUSH1 0x1 PUSH1 0x1 PUSH1 0xA0 SHL SUB DUP7 AND PUSH2 0x1665 JUMP JUMPDEST PUSH1 0x5 SLOAD PUSH2 0x695 SWAP1 PUSH1 0x44 CALLDATALOAD SWAP1 PUSH1 0x1 PUSH1 0x1 PUSH1 0xA0 SHL SUB SWAP1 DUP2 AND SWAP1 DUP6 AND PUSH2 0x16AE JUMP JUMPDEST PUSH1 0x5 SLOAD PUSH1 0x1 PUSH1 0x1 PUSH1 0xA0 SHL SUB AND SWAP1 TIMESTAMP PUSH2 0x12C DUP2 ADD LT PUSH2 0x849 JUMPI PUSH1 0x40 MLOAD PUSH2 0x100 DUP2 ADD SWAP3 DUP2 DUP5 LT PUSH8 0xFFFFFFFFFFFFFFFF DUP6 GT OR PUSH2 0x833 JUMPI PUSH1 0x40 SWAP4 DUP5 MSTORE PUSH1 0x1 PUSH1 0x1 PUSH1 0xA0 SHL SUB DUP6 DUP2 AND DUP4 MSTORE DUP4 DUP2 AND PUSH1 0x20 DUP5 DUP2 ADD SWAP2 DUP3 MSTORE PUSH2 0xBB8 DUP8 DUP7 ADD SWAP1 DUP2 MSTORE ADDRESS PUSH1 0x60 DUP8 ADD SWAP1 DUP2 MSTORE TIMESTAMP PUSH2 0x12C ADD PUSH1 0x80 DUP9 ADD SWAP1 DUP2 MSTORE PUSH1 0x44 DUP1 CALLDATALOAD PUSH1 0xA0 DUP11 ADD SWAP1 DUP2 MSTORE PUSH1 0xC0 DUP11 ADD DUP15 DUP2 MSTORE PUSH1 0xE0 DUP12 ADD DUP16 DUP2 MSTORE SWAP13 MLOAD PUSH4 0x414BF389 PUSH1 0xE0 SHL DUP2 MSTORE SWAP11 MLOAD DUP10 AND PUSH1 0x4 DUP13 ADD MSTORE SWAP7 MLOAD DUP9 AND PUSH1 0x24 DUP12 ADD MSTORE SWAP4 MLOAD PUSH3 0xFFFFFF AND SWAP1 DUP10 ADD MSTORE SWAP1 MLOAD DUP6 AND PUSH1 0x64 DUP9 ADD MSTORE MLOAD PUSH1 0x84 DUP8 ADD MSTORE MLOAD PUSH1 0xA4 DUP7 ADD MSTORE SWAP1 MLOAD PUSH1 0xC4 DUP6 ADD MSTORE SWAP5 MLOAD AND PUSH1 0xE4 DUP4 ADD MSTORE SWAP1 SWAP3 SWAP1 DUP4 SWAP1 PUSH2 0x104 SWAP1 DUP3 SWAP1 DUP9 SWAP1 GAS CALL SWAP2 DUP3 ISZERO PUSH2 0x828 JUMPI DUP5 SWAP3 PUSH2 0x7EE JUMPI JUMPDEST POP PUSH32 0x766728BE372C898C13C663DA63B59FDFEB89DAB2A81D4AFE3177EB038EE0DCD2 SWAP1 PUSH1 0x80 SWAP1 PUSH2 0x7C0 DUP5 CALLER PUSH1 0x1 PUSH1 0x1 PUSH1 0xA0 SHL SUB DUP5 AND PUSH2 0x17A1 JUMP JUMPDEST PUSH1 0x40 DUP1 MLOAD PUSH1 0x44 CALLDATALOAD DUP2 MSTORE PUSH1 0x20 DUP2 ADD SWAP6 SWAP1 SWAP6 MSTORE DUP5 ADD DUP7 SWAP1 MSTORE TIMESTAMP PUSH1 0x60 DUP6 ADD MSTORE PUSH1 0x1 PUSH1 0x1 PUSH1 0xA0 SHL SUB SWAP1 DUP2 AND SWAP5 AND SWAP3 LOG3 DUP1 RETURN JUMPDEST SWAP1 SWAP2 POP PUSH1 0x20 DUP2 RETURNDATASIZE PUSH1 0x20 GT PUSH2 0x820 JUMPI JUMPDEST DUP2 PUSH2 0x80A PUSH1 0x20 SWAP4 DUP4 PUSH2 0x15B5 JUMP JUMPDEST DUP2 ADD SUB SLT PUSH2 0x81B JUMPI MLOAD SWAP1 PUSH1 0x80 PUSH2 0x786 JUMP JUMPDEST PUSH1 0x0 DUP1 REVERT JUMPDEST RETURNDATASIZE SWAP2 POP PUSH2 0x7FD JUMP JUMPDEST PUSH1 0x40 MLOAD RETURNDATASIZE DUP7 DUP3 RETURNDATACOPY RETURNDATASIZE SWAP1 REVERT JUMPDEST PUSH4 0x4E487B71 PUSH1 0xE0 SHL PUSH1 0x0 MSTORE PUSH1 0x41 PUSH1 0x4 MSTORE PUSH1 0x24 PUSH1 0x0 REVERT JUMPDEST PUSH4 0x4E487B71 PUSH1 0xE0 SHL DUP5 MSTORE PUSH1 0x11 PUSH1 0x4 MSTORE PUSH1 0x24 DUP5 REVERT JUMPDEST POP PUSH1 0x0 DUP1 MLOAD PUSH1 0x20 PUSH2 0x19DD DUP4 CODECOPY DUP2 MLOAD SWAP2 MSTORE DUP4 MSTORE PUSH1 0x2 PUSH1 0x20 MSTORE PUSH1 0x40 DUP4 KECCAK256 CALLER PUSH1 0x0 MSTORE PUSH1 0x20 MSTORE PUSH1 0xFF PUSH1 0x40 PUSH1 0x0 KECCAK256 SLOAD AND ISZERO PUSH2 0x654 JUMP JUMPDEST POP CALLVALUE PUSH2 0x1F0 JUMPI DUP1 PUSH1 0x3 NOT CALLDATASIZE ADD SLT PUSH2 0x1F0 JUMPI PUSH1 0x6 SLOAD PUSH1 0x40 MLOAD PUSH1 0x1 PUSH1 0x1 PUSH1 0xA0 SHL SUB SWAP1 SWAP2 AND DUP2 MSTORE PUSH1 0x20 SWAP1 RETURN JUMPDEST POP CALLVALUE PUSH2 0x1F0 JUMPI PUSH1 0x40 CALLDATASIZE PUSH1 0x3 NOT ADD SLT PUSH2 0x1F0 JUMPI PUSH2 0x8D1 PUSH2 0x14E9 JUMP JUMPDEST PUSH1 0x24 CALLDATALOAD SWAP1 PUSH1 0x2 DUP4 SLOAD EQ PUSH2 0xA92 JUMPI PUSH1 0x2 DUP4 SSTORE PUSH2 0x8EA PUSH2 0x1647 JUMP JUMPDEST CALLER DUP4 MSTORE PUSH1 0x20 SWAP1 PUSH1 0xB DUP3 MSTORE PUSH1 0xFF PUSH1 0x40 DUP6 KECCAK256 SLOAD AND ISZERO DUP1 PUSH2 0xA63 JUMPI JUMPDEST PUSH2 0x5D8 JUMPI DUP3 ISZERO PUSH2 0x3B5 JUMPI PUSH2 0xE10 TIMESTAMP ADD SWAP3 DUP4 TIMESTAMP GT PUSH2 0xA4F JUMPI PUSH1 0x40 MLOAD SWAP3 PUSH2 0x927 DUP5 PUSH2 0x1599 JUMP JUMPDEST DUP6 DUP5 MSTORE DUP1 DUP5 ADD SWAP1 CALLER DUP3 MSTORE PUSH1 0x40 MLOAD SWAP1 DUP1 DUP3 ADD SWAP1 DUP3 DUP3 LT PUSH8 0xFFFFFFFFFFFFFFFF DUP4 GT OR PUSH2 0x833 JUMPI DUP9 SWAP8 PUSH2 0x9CC SWAP3 PUSH1 0x40 MSTORE DUP9 DUP5 MSTORE PUSH1 0x40 DUP9 ADD SWAP4 DUP5 MSTORE PUSH1 0x60 DUP9 ADD SWAP1 DUP10 DUP3 MSTORE PUSH1 0x80 DUP10 ADD SWAP1 DUP2 MSTORE PUSH2 0x9B1 PUSH1 0x1 DUP1 PUSH1 0xA0 SHL SUB SWAP6 DUP7 DUP1 PUSH1 0x4 SLOAD AND SWAP9 PUSH2 0x998 PUSH1 0x40 MLOAD SWAP14 DUP9 DUP16 SWAP10 DUP11 ADD MSTORE PUSH1 0x40 DUP10 ADD SWAP1 MLOAD PUSH2 0x15FA JUMP JUMPDEST MLOAD AND PUSH1 0x60 DUP7 ADD MSTORE MLOAD PUSH1 0xA0 PUSH1 0x80 DUP7 ADD MSTORE PUSH1 0xE0 DUP6 ADD SWAP1 PUSH2 0x1607 JUMP JUMPDEST SWAP2 MLOAD PUSH1 0xA0 DUP5 ADD MSTORE MLOAD PUSH1 0xC0 DUP4 ADD MSTORE SUB PUSH1 0x1F NOT DUP2 ADD DUP8 MSTORE DUP7 PUSH2 0x15B5 JUMP JUMPDEST DUP2 EXTCODESIZE ISZERO PUSH2 0xA4B JUMPI DUP6 DUP1 SWAP5 PUSH2 0xA0F PUSH1 0x40 MLOAD SWAP8 DUP9 SWAP7 DUP8 SWAP6 DUP7 SWAP5 PUSH4 0x10AC2DDF PUSH1 0xE2 SHL DUP7 MSTORE ADDRESS PUSH1 0x4 DUP8 ADD MSTORE AND PUSH1 0x24 DUP6 ADD MSTORE PUSH1 0x44 DUP5 ADD MSTORE PUSH1 0xA0 PUSH1 0x64 DUP5 ADD MSTORE PUSH1 0xA4 DUP4 ADD SWAP1 PUSH2 0x1607 JUMP JUMPDEST DUP3 PUSH1 0x84 DUP4 ADD MSTORE SUB SWAP3 GAS CALL DUP1 ISZERO PUSH2 0xA40 JUMPI PUSH2 0xA2C JUMPI JUMPDEST POP PUSH1 0x1 SWAP1 SSTORE DUP1 RETURN JUMPDEST PUSH2 0xA35 SWAP1 PUSH2 0x1585 JUMP JUMPDEST PUSH2 0x1F0 JUMPI DUP1 CODESIZE PUSH2 0xA24 JUMP JUMPDEST PUSH1 0x40 MLOAD RETURNDATASIZE DUP5 DUP3 RETURNDATACOPY RETURNDATASIZE SWAP1 REVERT JUMPDEST DUP6 DUP1 REVERT JUMPDEST PUSH4 0x4E487B71 PUSH1 0xE0 SHL DUP6 MSTORE PUSH1 0x11 PUSH1 0x4 MSTORE PUSH1 0x24 DUP6 REVERT JUMPDEST POP PUSH1 0x0 DUP1 MLOAD PUSH1 0x20 PUSH2 0x19DD DUP4 CODECOPY DUP2 MLOAD SWAP2 MSTORE DUP5 MSTORE PUSH1 0x2 DUP3 MSTORE PUSH1 0x40 DUP5 KECCAK256 CALLER PUSH1 0x0 MSTORE DUP3 MSTORE PUSH1 0xFF PUSH1 0x40 PUSH1 0x0 KECCAK256 SLOAD AND ISZERO PUSH2 0x903 JUMP JUMPDEST PUSH1 0x40 MLOAD PUSH4 0x3EE5AEB5 PUSH1 0xE0 SHL DUP2 MSTORE PUSH1 0x4 SWAP1 REVERT JUMPDEST POP CALLVALUE PUSH2 0x1F0 JUMPI PUSH1 0x20 CALLDATASIZE PUSH1 0x3 NOT ADD SLT PUSH2 0x1F0 JUMPI PUSH1 0x4 CALLDATALOAD PUSH2 0xAC1 PUSH2 0x17DD JUMP JUMPDEST PUSH2 0x1F4 DUP2 GT PUSH2 0xAD0 JUMPI PUSH1 0x7 SSTORE DUP1 RETURN JUMPDEST PUSH1 0x40 MLOAD PUSH3 0x461BCD PUSH1 0xE5 SHL DUP2 MSTORE PUSH1 0x20 PUSH1 0x4 DUP3 ADD MSTORE PUSH1 0xC PUSH1 0x24 DUP3 ADD MSTORE PUSH12 0x8CCACA40E8DEDE40D0D2CED PUSH1 0xA3 SHL PUSH1 0x44 DUP3 ADD MSTORE PUSH1 0x64 SWAP1 REVERT JUMPDEST POP CALLVALUE PUSH2 0x1F0 JUMPI DUP1 PUSH1 0x3 NOT CALLDATASIZE ADD SLT PUSH2 0x1F0 JUMPI PUSH1 0x20 PUSH1 0xFF PUSH1 0x1 SLOAD AND PUSH1 0x40 MLOAD SWAP1 ISZERO ISZERO DUP2 MSTORE RETURN JUMPDEST POP CALLVALUE PUSH2 0x1F0 JUMPI PUSH1 0x20 CALLDATASIZE PUSH1 0x3 NOT ADD SLT PUSH2 0x1F0 JUMPI PUSH1 0x20 SWAP1 PUSH1 0xFF SWAP1 PUSH1 0x40 SWAP1 PUSH1 0x1 PUSH1 0x1 PUSH1 0xA0 SHL SUB PUSH2 0xB52 PUSH2 0x14E9 JUMP JUMPDEST AND DUP2 MSTORE PUSH1 0xB DUP5 MSTORE KECCAK256 SLOAD AND PUSH1 0x40 MLOAD SWAP1 ISZERO ISZERO DUP2 MSTORE RETURN JUMPDEST POP CALLVALUE PUSH2 0x1F0 JUMPI DUP1 PUSH1 0x3 NOT CALLDATASIZE ADD SLT PUSH2 0x1F0 JUMPI PUSH1 0x20 PUSH1 0x7 SLOAD PUSH1 0x40 MLOAD SWAP1 DUP2 MSTORE RETURN JUMPDEST POP CALLVALUE PUSH2 0x1F0 JUMPI PUSH1 0x40 CALLDATASIZE PUSH1 0x3 NOT ADD SLT PUSH2 0x1F0 JUMPI PUSH2 0xB9E PUSH2 0x14E9 JUMP JUMPDEST PUSH1 0x24 CALLDATALOAD SWAP1 DUP2 ISZERO ISZERO DUP1 SWAP3 SUB PUSH2 0xBD7 JUMPI PUSH2 0xBB4 PUSH2 0x17DD JUMP JUMPDEST PUSH1 0x1 DUP1 PUSH1 0xA0 SHL SUB AND DUP3 MSTORE PUSH1 0xB PUSH1 0x20 MSTORE PUSH1 0x40 DUP3 KECCAK256 SWAP1 PUSH1 0xFF DUP1 NOT DUP4 SLOAD AND SWAP2 AND OR SWAP1 SSTORE DUP1 RETURN JUMPDEST DUP3 DUP1 REVERT JUMPDEST POP CALLVALUE PUSH2 0x1F0 JUMPI PUSH1 0x20 SWAP1 DUP2 PUSH1 0x3 NOT CALLDATASIZE ADD SLT PUSH2 0x1F0 JUMPI PUSH1 0x24 DUP3 PUSH1 0x1 PUSH1 0x1 PUSH1 0xA0 SHL SUB PUSH2 0xC02 PUSH2 0x14E9 JUMP JUMPDEST AND PUSH1 0x40 MLOAD SWAP3 DUP4 DUP1 SWAP3 PUSH4 0x70A08231 PUSH1 0xE0 SHL DUP3 MSTORE ADDRESS PUSH1 0x4 DUP4 ADD MSTORE GAS STATICCALL SWAP2 DUP3 ISZERO PUSH2 0xC5F JUMPI SWAP2 PUSH2 0xC32 JUMPI JUMPDEST POP PUSH1 0x40 MLOAD SWAP1 DUP2 MSTORE RETURN JUMPDEST SWAP1 POP DUP2 DUP2 DUP2 RETURNDATASIZE DUP4 GT PUSH2 0xC58 JUMPI JUMPDEST PUSH2 0xC49 DUP2 DUP4 PUSH2 0x15B5 JUMP JUMPDEST DUP2 ADD SUB SLT PUSH2 0x81B JUMPI MLOAD CODESIZE PUSH2 0xC29 JUMP JUMPDEST POP RETURNDATASIZE PUSH2 0xC3F JUMP JUMPDEST PUSH1 0x40 MLOAD SWAP1 RETURNDATASIZE SWAP1 DUP3 RETURNDATACOPY RETURNDATASIZE SWAP1 REVERT JUMPDEST POP CALLVALUE PUSH2 0x1F0 JUMPI DUP1 PUSH1 0x3 NOT CALLDATASIZE ADD SLT PUSH2 0x1F0 JUMPI PUSH2 0xC84 PUSH2 0x17DD JUMP JUMPDEST PUSH1 0x1 SLOAD PUSH1 0xFF DUP2 AND ISZERO PUSH2 0xCC4 JUMPI PUSH1 0xFF NOT AND PUSH1 0x1 SSTORE PUSH32 0x5DB9EE0A495BF2E6FF9C91A7834C1BA4FDD244A5E8AA4E537BD38AEAE4B073AA PUSH1 0x20 PUSH1 0x40 MLOAD CALLER DUP2 MSTORE LOG1 DUP1 RETURN JUMPDEST PUSH1 0x40 MLOAD PUSH4 0x8DFC202B PUSH1 0xE0 SHL DUP2 MSTORE PUSH1 0x4 SWAP1 REVERT JUMPDEST POP CALLVALUE PUSH2 0x1F0 JUMPI PUSH1 0x40 CALLDATASIZE PUSH1 0x3 NOT ADD SLT PUSH2 0x1F0 JUMPI PUSH2 0xCF0 PUSH2 0x14FF JUMP JUMPDEST CALLER PUSH1 0x1 PUSH1 0x1 PUSH1 0xA0 SHL SUB DUP3 AND SUB PUSH2 0xD0C JUMPI PUSH2 0x323 SWAP1 PUSH1 0x4 CALLDATALOAD PUSH2 0x18FD JUMP JUMPDEST PUSH1 0x40 MLOAD PUSH4 0x334BD919 PUSH1 0xE1 SHL DUP2 MSTORE PUSH1 0x4 SWAP1 REVERT JUMPDEST POP CALLVALUE PUSH2 0x1F0 JUMPI PUSH1 0x40 CALLDATASIZE PUSH1 0x3 NOT ADD SLT PUSH2 0x1F0 JUMPI PUSH2 0xD38 PUSH2 0x14E9 JUMP JUMPDEST PUSH1 0x24 CALLDATALOAD DUP1 ISZERO PUSH2 0x3B5 JUMPI CALLER DUP4 MSTORE PUSH1 0x8 PUSH1 0x20 MSTORE PUSH1 0x40 DUP4 KECCAK256 SWAP2 PUSH1 0x1 DUP1 PUSH1 0xA0 SHL SUB AND SWAP2 DUP3 PUSH1 0x0 MSTORE PUSH1 0x20 MSTORE DUP1 PUSH1 0x40 PUSH1 0x0 KECCAK256 SLOAD LT PUSH2 0xDCA JUMPI CALLER DUP4 MSTORE PUSH1 0x8 PUSH1 0x20 MSTORE PUSH1 0x40 DUP4 KECCAK256 DUP3 PUSH1 0x0 MSTORE PUSH1 0x20 MSTORE PUSH1 0x40 PUSH1 0x0 KECCAK256 DUP1 SLOAD SWAP1 DUP3 DUP3 SUB SWAP2 DUP3 GT PUSH2 0xA4F JUMPI SSTORE PUSH2 0xD9B DUP2 CALLER DUP5 PUSH2 0x17A1 JUMP JUMPDEST PUSH1 0x40 MLOAD SWAP1 DUP2 MSTORE PUSH32 0x45892A46E6CEF329BB642DA6D69846D324DB43D19008EDC141ED82382EDA1BEE PUSH1 0x20 CALLER SWAP3 LOG3 DUP1 RETURN JUMPDEST PUSH1 0x40 MLOAD PUSH4 0x3A23D825 PUSH1 0xE0 SHL DUP2 MSTORE PUSH1 0x4 SWAP1 REVERT JUMPDEST POP CALLVALUE PUSH2 0x1F0 JUMPI PUSH1 0x40 CALLDATASIZE PUSH1 0x3 NOT ADD SLT PUSH2 0x1F0 JUMPI PUSH2 0x323 PUSH1 0x4 CALLDATALOAD PUSH2 0xDFC PUSH2 0x14FF JUMP JUMPDEST SWAP1 DUP1 DUP5 MSTORE PUSH1 0x2 PUSH1 0x20 MSTORE PUSH2 0xE15 PUSH1 0x1 PUSH1 0x40 DUP7 KECCAK256 ADD SLOAD PUSH2 0x1857 JUMP JUMPDEST PUSH2 0x187D JUMP JUMPDEST POP CALLVALUE PUSH2 0x1F0 JUMPI DUP1 PUSH1 0x3 NOT CALLDATASIZE ADD SLT PUSH2 0x1F0 JUMPI PUSH1 0x5 SLOAD PUSH1 0x40 MLOAD PUSH1 0x1 PUSH1 0x1 PUSH1 0xA0 SHL SUB SWAP1 SWAP2 AND DUP2 MSTORE PUSH1 0x20 SWAP1 RETURN JUMPDEST POP CALLVALUE PUSH2 0x1F0 JUMPI DUP1 PUSH1 0x3 NOT CALLDATASIZE ADD SLT PUSH2 0x1F0 JUMPI PUSH1 0x20 PUSH1 0x40 MLOAD PUSH2 0x2710 DUP2 MSTORE RETURN JUMPDEST POP CALLVALUE PUSH2 0x1F0 JUMPI PUSH1 0x20 CALLDATASIZE PUSH1 0x3 NOT ADD SLT PUSH2 0x1F0 JUMPI PUSH1 0x1 PUSH1 0x40 PUSH1 0x20 SWAP3 PUSH1 0x4 CALLDATALOAD DUP2 MSTORE PUSH1 0x2 DUP5 MSTORE KECCAK256 ADD SLOAD PUSH1 0x40 MLOAD SWAP1 DUP2 MSTORE RETURN JUMPDEST POP CALLVALUE PUSH2 0x1F0 JUMPI PUSH1 0xA0 CALLDATASIZE PUSH1 0x3 NOT ADD SLT PUSH2 0x1F0 JUMPI PUSH2 0xEA7 PUSH2 0x14E9 JUMP JUMPDEST SWAP1 PUSH1 0x24 SWAP1 PUSH1 0x44 SWAP1 DUP3 CALLDATALOAD SWAP1 PUSH1 0x1 PUSH1 0x1 PUSH1 0xA0 SHL SUB PUSH1 0x64 CALLDATALOAD DUP2 DUP2 AND SWAP1 DUP2 SWAP1 SUB PUSH2 0x81B JUMPI PUSH1 0x84 CALLDATALOAD SWAP7 PUSH8 0xFFFFFFFFFFFFFFFF SWAP1 DUP2 DUP10 GT PUSH2 0x116D JUMPI CALLDATASIZE PUSH1 0x23 DUP11 ADD SLT ISZERO PUSH2 0x116D JUMPI DUP9 PUSH1 0x4 ADD CALLDATALOAD DUP3 DUP2 GT PUSH2 0xA4B JUMPI DUP10 ADD SWAP3 DUP9 DUP5 ADD SWAP4 CALLDATASIZE DUP6 GT PUSH2 0x1132 JUMPI DUP6 PUSH1 0x4 SLOAD AND SWAP2 DUP3 CALLER SUB PUSH2 0x5D8 JUMPI ADDRESS SUB PUSH2 0x113A JUMPI PUSH1 0x20 SWAP11 DUP12 DUP2 DUP4 SUB SLT PUSH2 0x1136 JUMPI DUP11 DUP2 ADD CALLDATALOAD SWAP1 DUP6 DUP3 GT PUSH2 0x112E JUMPI SWAP1 PUSH1 0xA0 SWAP2 ADD DUP1 SWAP3 SUB SLT PUSH2 0x1132 JUMPI PUSH1 0x40 MLOAD SWAP4 PUSH2 0xF46 DUP6 PUSH2 0x1599 JUMP JUMPDEST DUP11 DUP3 ADD CALLDATALOAD PUSH1 0x3 DUP2 LT ISZERO PUSH2 0x112E JUMPI DUP6 MSTORE DUP10 DUP3 ADD CALLDATALOAD SWAP6 DUP8 DUP8 AND DUP8 SUB PUSH2 0x81B JUMPI DUP13 DUP7 ADD SWAP7 DUP8 MSTORE PUSH1 0x64 DUP4 ADD CALLDATALOAD DUP3 DUP2 GT PUSH2 0x1115 JUMPI DUP4 ADD SWAP1 DUP1 PUSH1 0x43 DUP4 ADD SLT ISZERO PUSH2 0x1115 JUMPI DUP13 DUP3 ADD CALLDATALOAD SWAP3 DUP4 GT PUSH2 0x1119 JUMPI SWAP1 DUP14 SWAP3 SWAP2 PUSH2 0xFA8 PUSH1 0x40 MLOAD SWAP5 PUSH1 0x1F NOT PUSH1 0x1F DUP7 ADD AND ADD DUP6 PUSH2 0x15B5 JUMP JUMPDEST DUP3 DUP5 MSTORE DUP13 DUP4 DUP4 ADD ADD GT PUSH2 0x1115 JUMPI DUP14 DUP3 PUSH1 0xA4 SWAP6 SWAP5 SWAP4 DUP15 DUP14 SWAP5 ADD DUP4 DUP7 ADD CALLDATACOPY DUP4 ADD ADD MSTORE PUSH1 0x40 DUP7 ADD MSTORE PUSH1 0x84 DUP2 ADD CALLDATALOAD PUSH1 0x60 DUP7 ADD MSTORE ADD CALLDATALOAD PUSH1 0x80 DUP5 ADD MSTORE DUP5 PUSH2 0xFEA DUP10 CALLDATALOAD DUP10 PUSH2 0x15D7 JUMP JUMPDEST SWAP3 AND SWAP8 PUSH1 0x40 MLOAD PUSH4 0x70A08231 PUSH1 0xE0 SHL DUP2 MSTORE ADDRESS PUSH1 0x4 DUP3 ADD MSTORE DUP12 DUP2 DUP13 DUP2 DUP14 GAS STATICCALL SWAP1 DUP2 ISZERO PUSH2 0x110A JUMPI SWAP1 DUP5 SWAP2 DUP10 SWAP2 PUSH2 0x10D9 JUMPI JUMPDEST POP LT PUSH2 0x109F JUMPI POP SWAP1 PUSH2 0x102A SWAP2 DUP9 PUSH2 0x16AE JUMP JUMPDEST MLOAD SWAP6 PUSH1 0x3 DUP8 LT ISZERO PUSH2 0x108D JUMPI POP SWAP2 PUSH2 0x1072 PUSH32 0x687C76DD0DA5A59B68B988F11CDC5A2202F1F62BCDFD6B64130EF2661516CC65 SWAP5 SWAP3 PUSH1 0xA0 SWAP5 MLOAD AND SWAP7 PUSH1 0x40 MLOAD SWAP4 DUP5 MSTORE DUP9 DUP5 ADD SWAP1 PUSH2 0x15FA JUMP JUMPDEST DUP1 PUSH1 0x40 DUP4 ADD MSTORE PUSH1 0x60 DUP3 ADD MSTORE TIMESTAMP PUSH1 0x80 DUP3 ADD MSTORE LOG3 PUSH1 0x40 MLOAD PUSH1 0x1 DUP2 MSTORE RETURN JUMPDEST PUSH4 0x4E487B71 PUSH1 0xE0 SHL DUP5 MSTORE PUSH1 0x21 PUSH1 0x4 MSTORE DUP4 REVERT JUMPDEST DUP11 PUSH21 0x496E73756666696369656E7420746F207265706179 PUSH1 0x58 SHL PUSH1 0x64 SWAP3 PUSH1 0x15 DUP14 PUSH1 0x40 MLOAD SWAP5 PUSH3 0x461BCD PUSH1 0xE5 SHL DUP7 MSTORE PUSH1 0x4 DUP7 ADD MSTORE DUP5 ADD MSTORE DUP3 ADD MSTORE REVERT JUMPDEST DUP1 SWAP3 POP DUP14 DUP1 SWAP3 POP RETURNDATASIZE DUP4 GT PUSH2 0x1103 JUMPI JUMPDEST PUSH2 0x10F2 DUP2 DUP4 PUSH2 0x15B5 JUMP JUMPDEST DUP2 ADD SUB SLT PUSH2 0x81B JUMPI DUP4 SWAP1 MLOAD CODESIZE PUSH2 0x1018 JUMP JUMPDEST POP RETURNDATASIZE PUSH2 0x10E8 JUMP JUMPDEST PUSH1 0x40 MLOAD RETURNDATASIZE DUP11 DUP3 RETURNDATACOPY RETURNDATASIZE SWAP1 REVERT JUMPDEST DUP10 DUP1 REVERT JUMPDEST DUP13 PUSH4 0x4E487B71 PUSH1 0xE0 SHL PUSH1 0x0 MSTORE PUSH1 0x41 PUSH1 0x4 MSTORE PUSH1 0x0 REVERT JUMPDEST DUP9 DUP1 REVERT JUMPDEST DUP7 DUP1 REVERT JUMPDEST DUP8 DUP1 REVERT JUMPDEST PUSH1 0x40 MLOAD PUSH3 0x461BCD PUSH1 0xE5 SHL DUP2 MSTORE PUSH1 0x20 PUSH1 0x4 DUP3 ADD MSTORE PUSH1 0xD DUP2 DUP13 ADD MSTORE PUSH13 0x2130B21034B734BA34B0BA37B9 PUSH1 0x99 SHL DUP2 DUP12 ADD MSTORE PUSH1 0x64 SWAP1 REVERT JUMPDEST DUP5 DUP1 REVERT JUMPDEST POP CALLVALUE PUSH2 0x1F0 JUMPI DUP1 PUSH1 0x3 NOT CALLDATASIZE ADD SLT PUSH2 0x1F0 JUMPI PUSH1 0x20 PUSH1 0x40 MLOAD PUSH2 0x1F4 DUP2 MSTORE RETURN JUMPDEST POP CALLVALUE PUSH2 0x1F0 JUMPI DUP1 PUSH1 0x3 NOT CALLDATASIZE ADD SLT PUSH2 0x1F0 JUMPI PUSH1 0x4 SLOAD PUSH1 0x40 MLOAD PUSH1 0x1 PUSH1 0x1 PUSH1 0xA0 SHL SUB SWAP1 SWAP2 AND DUP2 MSTORE PUSH1 0x20 SWAP1 RETURN JUMPDEST POP CALLVALUE PUSH2 0x1F0 JUMPI PUSH2 0x11C6 CALLDATASIZE PUSH2 0x1544 JUMP JUMPDEST SWAP3 SWAP1 SWAP3 CALLER DUP6 MSTORE PUSH1 0x20 PUSH1 0xB DUP2 MSTORE PUSH1 0xFF PUSH1 0x40 DUP8 KECCAK256 SLOAD AND ISZERO DUP1 PUSH2 0x1402 JUMPI JUMPDEST PUSH2 0x5D8 JUMPI PUSH2 0x11ED PUSH2 0x1647 JUMP JUMPDEST PUSH1 0x1 DUP1 PUSH1 0xA0 SHL SUB SWAP4 DUP5 PUSH1 0xC0 DUP2 PUSH1 0x4 SLOAD AND SWAP6 PUSH1 0x24 PUSH1 0x40 MLOAD DUP1 SWAP5 DUP2 SWAP4 PUSH4 0x2FE4A15F PUSH1 0xE2 SHL DUP4 MSTORE AND SWAP9 DUP10 PUSH1 0x4 DUP4 ADD MSTORE GAS STATICCALL DUP1 ISZERO PUSH2 0x110A JUMPI DUP9 SWAP1 PUSH2 0x13C5 JUMPI JUMPDEST PUSH8 0xDE0B6B3A7640000 SWAP2 POP LT ISZERO PUSH2 0x1380 JUMPI DUP5 DUP8 SWAP2 AND SWAP6 PUSH2 0x124A DUP5 ADDRESS CALLER DUP11 PUSH2 0x1665 JUMP JUMPDEST PUSH2 0x1259 DUP5 DUP8 PUSH1 0x4 SLOAD AND DUP10 PUSH2 0x16AE JUMP JUMPDEST DUP6 PUSH1 0x4 SLOAD AND SWAP6 DUP7 EXTCODESIZE ISZERO PUSH2 0xBD7 JUMPI PUSH1 0xA4 DUP4 SWAP3 PUSH1 0x40 MLOAD SWAP5 DUP6 SWAP4 DUP5 SWAP3 PUSH3 0xA718A9 PUSH1 0xE0 SHL DUP5 MSTORE AND SWAP10 DUP11 PUSH1 0x4 DUP5 ADD MSTORE DUP12 PUSH1 0x24 DUP5 ADD MSTORE DUP10 PUSH1 0x44 DUP5 ADD MSTORE DUP9 PUSH1 0x64 DUP5 ADD MSTORE DUP2 PUSH1 0x84 DUP5 ADD MSTORE GAS CALL DUP1 ISZERO PUSH2 0x1375 JUMPI PUSH2 0x1360 JUMPI JUMPDEST POP PUSH1 0x40 MLOAD PUSH4 0x70A08231 PUSH1 0xE0 SHL DUP2 MSTORE ADDRESS PUSH1 0x4 DUP3 ADD MSTORE DUP7 SWAP3 SWAP2 SWAP1 DUP2 DUP2 PUSH1 0x24 DUP2 DUP10 GAS STATICCALL SWAP1 DUP2 ISZERO PUSH2 0x828 JUMPI DUP5 SWAP2 PUSH2 0x1329 JUMPI JUMPDEST POP SWAP3 PUSH1 0x60 SWAP3 SWAP2 DUP5 PUSH32 0x77DABBF924A6F11F55B1042AA168A422B93D6D1B6DB5D812F2C479C16A512DA7 SWAP6 PUSH2 0x1318 JUMPI JUMPDEST POP PUSH1 0x40 MLOAD SWAP3 DUP4 MSTORE DUP3 ADD MSTORE TIMESTAMP PUSH1 0x40 DUP3 ADD MSTORE LOG4 DUP1 RETURN JUMPDEST PUSH2 0x1323 SWAP1 CALLER DUP10 PUSH2 0x17A1 JUMP JUMPDEST CODESIZE PUSH2 0x1304 JUMP JUMPDEST DUP1 SWAP5 POP DUP3 DUP1 SWAP5 SWAP4 SWAP3 POP RETURNDATASIZE DUP4 GT PUSH2 0x1359 JUMPI JUMPDEST PUSH2 0x1344 DUP2 DUP4 PUSH2 0x15B5 JUMP JUMPDEST DUP2 ADD SUB SLT PUSH2 0x81B JUMPI SWAP2 MLOAD DUP7 SWAP3 SWAP2 SWAP1 PUSH1 0x60 PUSH2 0x12D6 JUMP JUMPDEST POP RETURNDATASIZE PUSH2 0x133A JUMP JUMPDEST PUSH2 0x136D SWAP1 SWAP7 SWAP2 SWAP3 SWAP7 PUSH2 0x1585 JUMP JUMPDEST SWAP5 SWAP1 CODESIZE PUSH2 0x12A8 JUMP JUMPDEST PUSH1 0x40 MLOAD RETURNDATASIZE DUP10 DUP3 RETURNDATACOPY RETURNDATASIZE SWAP1 REVERT JUMPDEST PUSH1 0x40 MLOAD PUSH3 0x461BCD PUSH1 0xE5 SHL DUP2 MSTORE PUSH1 0x4 DUP2 ADD DUP4 SWAP1 MSTORE PUSH1 0x17 PUSH1 0x24 DUP3 ADD MSTORE PUSH32 0x546172676574206E6F74206C6971756964617461626C65000000000000000000 PUSH1 0x44 DUP3 ADD MSTORE PUSH1 0x64 SWAP1 REVERT JUMPDEST POP PUSH1 0xC0 DUP2 RETURNDATASIZE PUSH1 0xC0 GT PUSH2 0x13FA JUMPI JUMPDEST DUP2 PUSH2 0x13DF PUSH1 0xC0 SWAP4 DUP4 PUSH2 0x15B5 JUMP JUMPDEST DUP2 ADD SUB SLT PUSH2 0x1136 JUMPI PUSH1 0xA0 PUSH8 0xDE0B6B3A7640000 SWAP2 ADD MLOAD PUSH2 0x1228 JUMP JUMPDEST RETURNDATASIZE SWAP2 POP PUSH2 0x13D2 JUMP JUMPDEST POP PUSH1 0x0 DUP1 MLOAD PUSH1 0x20 PUSH2 0x19DD DUP4 CODECOPY DUP2 MLOAD SWAP2 MSTORE DUP7 MSTORE PUSH1 0x2 DUP2 MSTORE PUSH1 0x40 DUP7 KECCAK256 CALLER DUP8 MSTORE DUP2 MSTORE PUSH1 0xFF PUSH1 0x40 DUP8 KECCAK256 SLOAD AND ISZERO PUSH2 0x11E1 JUMP JUMPDEST POP CALLVALUE PUSH2 0x1F0 JUMPI DUP1 PUSH1 0x3 NOT CALLDATASIZE ADD SLT PUSH2 0x1F0 JUMPI PUSH1 0x3 SLOAD PUSH1 0x40 MLOAD PUSH1 0x1 PUSH1 0x1 PUSH1 0xA0 SHL SUB SWAP1 SWAP2 AND DUP2 MSTORE PUSH1 0x20 SWAP1 RETURN JUMPDEST POP CALLVALUE PUSH2 0x1F0 JUMPI PUSH1 0x20 CALLDATASIZE PUSH1 0x3 NOT ADD SLT PUSH2 0x1F0 JUMPI PUSH1 0x4 CALLDATALOAD PUSH4 0xFFFFFFFF PUSH1 0xE0 SHL DUP2 AND DUP1 SWAP2 SUB PUSH2 0x14AF JUMPI PUSH1 0x20 SWAP1 PUSH4 0x7965DB0B PUSH1 0xE0 SHL DUP2 EQ SWAP1 DUP2 ISZERO PUSH2 0x149E JUMPI JUMPDEST POP PUSH1 0x40 MLOAD SWAP1 ISZERO ISZERO DUP2 MSTORE RETURN JUMPDEST PUSH4 0x1FFC9A7 PUSH1 0xE0 SHL EQ SWAP1 POP DUP3 PUSH2 0x1493 JUMP JUMPDEST POP DUP1 REVERT JUMPDEST SWAP1 POP CALLVALUE PUSH2 0x14AF JUMPI PUSH1 0x20 CALLDATASIZE PUSH1 0x3 NOT ADD SLT PUSH2 0x14AF JUMPI PUSH1 0x20 SWAP2 PUSH1 0x40 SWAP1 PUSH1 0x1 PUSH1 0x1 PUSH1 0xA0 SHL SUB PUSH2 0x14DC PUSH2 0x14E9 JUMP JUMPDEST AND DUP2 MSTORE PUSH1 0x9 DUP5 MSTORE KECCAK256 SLOAD DUP2 MSTORE RETURN JUMPDEST PUSH1 0x4 CALLDATALOAD SWAP1 PUSH1 0x1 PUSH1 0x1 PUSH1 0xA0 SHL SUB DUP3 AND DUP3 SUB PUSH2 0x81B JUMPI JUMP JUMPDEST PUSH1 0x24 CALLDATALOAD SWAP1 PUSH1 0x1 PUSH1 0x1 PUSH1 0xA0 SHL SUB DUP3 AND DUP3 SUB PUSH2 0x81B JUMPI JUMP JUMPDEST PUSH1 0x3 DUP2 LT ISZERO PUSH2 0x152E JUMPI PUSH1 0x0 MSTORE PUSH1 0xA PUSH1 0x20 MSTORE PUSH1 0x40 PUSH1 0x0 KECCAK256 SWAP1 JUMP JUMPDEST PUSH4 0x4E487B71 PUSH1 0xE0 SHL PUSH1 0x0 MSTORE PUSH1 0x21 PUSH1 0x4 MSTORE PUSH1 0x24 PUSH1 0x0 REVERT JUMPDEST PUSH1 0x80 SWAP1 PUSH1 0x3 NOT ADD SLT PUSH2 0x81B JUMPI PUSH1 0x1 PUSH1 0x1 PUSH1 0xA0 SHL SUB PUSH1 0x4 CALLDATALOAD DUP2 DUP2 AND DUP2 SUB PUSH2 0x81B JUMPI SWAP2 PUSH1 0x24 CALLDATALOAD DUP3 DUP2 AND DUP2 SUB PUSH2 0x81B JUMPI SWAP2 PUSH1 0x44 CALLDATALOAD SWAP1 DUP2 AND DUP2 SUB PUSH2 0x81B JUMPI SWAP1 PUSH1 0x64 CALLDATALOAD SWAP1 JUMP JUMPDEST PUSH8 0xFFFFFFFFFFFFFFFF DUP2 GT PUSH2 0x833 JUMPI PUSH1 0x40 MSTORE JUMP JUMPDEST PUSH1 0xA0 DUP2 ADD SWAP1 DUP2 LT PUSH8 0xFFFFFFFFFFFFFFFF DUP3 GT OR PUSH2 0x833 JUMPI PUSH1 0x40 MSTORE JUMP JUMPDEST SWAP1 PUSH1 0x1F DUP1 NOT SWAP2 ADD AND DUP2 ADD SWAP1 DUP2 LT PUSH8 0xFFFFFFFFFFFFFFFF DUP3 GT OR PUSH2 0x833 JUMPI PUSH1 0x40 MSTORE JUMP JUMPDEST SWAP2 SWAP1 DUP3 ADD DUP1 SWAP3 GT PUSH2 0x15E4 JUMPI JUMP JUMPDEST PUSH4 0x4E487B71 PUSH1 0xE0 SHL PUSH1 0x0 MSTORE PUSH1 0x11 PUSH1 0x4 MSTORE PUSH1 0x24 PUSH1 0x0 REVERT JUMPDEST SWAP1 PUSH1 0x3 DUP3 LT ISZERO PUSH2 0x152E JUMPI MSTORE JUMP JUMPDEST SWAP2 SWAP1 DUP3 MLOAD SWAP3 DUP4 DUP3 MSTORE PUSH1 0x0 JUMPDEST DUP5 DUP2 LT PUSH2 0x1633 JUMPI POP POP DUP3 PUSH1 0x0 PUSH1 0x20 DUP1 SWAP5 SWAP6 DUP5 ADD ADD MSTORE PUSH1 0x1F DUP1 NOT SWAP2 ADD AND ADD ADD SWAP1 JUMP JUMPDEST PUSH1 0x20 DUP2 DUP4 ADD DUP2 ADD MLOAD DUP5 DUP4 ADD DUP3 ADD MSTORE ADD PUSH2 0x1612 JUMP JUMPDEST PUSH1 0xFF PUSH1 0x1 SLOAD AND PUSH2 0x1653 JUMPI JUMP JUMPDEST PUSH1 0x40 MLOAD PUSH4 0xD93C0665 PUSH1 0xE0 SHL DUP2 MSTORE PUSH1 0x4 SWAP1 REVERT JUMPDEST PUSH1 0x40 MLOAD PUSH4 0x23B872DD PUSH1 0xE0 SHL PUSH1 0x20 DUP3 ADD MSTORE PUSH1 0x1 PUSH1 0x1 PUSH1 0xA0 SHL SUB SWAP3 DUP4 AND PUSH1 0x24 DUP3 ADD MSTORE SWAP3 SWAP1 SWAP2 AND PUSH1 0x44 DUP4 ADD MSTORE PUSH1 0x64 DUP1 DUP4 ADD SWAP4 SWAP1 SWAP4 MSTORE SWAP2 DUP2 MSTORE PUSH2 0x16AC SWAP2 PUSH2 0x16A7 DUP3 PUSH2 0x1599 JUMP JUMPDEST PUSH2 0x1974 JUMP JUMPDEST JUMP JUMPDEST PUSH1 0x40 MLOAD PUSH4 0x95EA7B3 PUSH1 0xE0 SHL PUSH1 0x20 DUP3 ADD DUP2 DUP2 MSTORE PUSH1 0x1 PUSH1 0x1 PUSH1 0xA0 SHL SUB DUP6 AND PUSH1 0x24 DUP5 ADD MSTORE PUSH1 0x44 DUP1 DUP5 ADD SWAP7 SWAP1 SWAP7 MSTORE SWAP5 DUP3 MSTORE SWAP5 SWAP4 SWAP1 SWAP3 PUSH2 0x16EA PUSH1 0x64 DUP6 PUSH2 0x15B5 JUMP JUMPDEST PUSH1 0x20 PUSH1 0x0 DUP1 SWAP4 DUP7 MLOAD SWAP1 DUP3 DUP8 GAS CALL DUP3 MLOAD RETURNDATASIZE DUP3 PUSH2 0x177C JUMPI JUMPDEST POP POP ISZERO PUSH2 0x1710 JUMPI JUMPDEST POP POP POP POP SWAP1 POP JUMP JUMPDEST PUSH1 0x40 MLOAD PUSH1 0x20 DUP2 ADD SWAP7 SWAP1 SWAP7 MSTORE PUSH1 0x1 PUSH1 0x1 PUSH1 0xA0 SHL SUB AND PUSH1 0x24 DUP7 ADD MSTORE PUSH1 0x44 DUP1 DUP7 ADD DUP3 SWAP1 MSTORE DUP6 MSTORE PUSH1 0x80 DUP6 ADD SWAP1 PUSH8 0xFFFFFFFFFFFFFFFF DUP3 GT DUP7 DUP4 LT OR PUSH2 0x1768 JUMPI POP PUSH2 0x175E SWAP4 SWAP5 PUSH2 0x16A7 SWAP2 PUSH1 0x40 MSTORE DUP3 PUSH2 0x1974 JUMP JUMPDEST DUP1 CODESIZE DUP1 DUP1 DUP1 PUSH2 0x1708 JUMP JUMPDEST PUSH4 0x4E487B71 PUSH1 0xE0 SHL DUP2 MSTORE PUSH1 0x41 PUSH1 0x4 MSTORE PUSH1 0x24 SWAP1 REVERT JUMPDEST SWAP1 SWAP2 POP PUSH2 0x1799 JUMPI POP PUSH1 0x1 PUSH1 0x1 PUSH1 0xA0 SHL SUB DUP4 AND EXTCODESIZE ISZERO ISZERO JUMPDEST CODESIZE DUP1 PUSH2 0x1700 JUMP JUMPDEST PUSH1 0x1 EQ PUSH2 0x1792 JUMP JUMPDEST PUSH1 0x40 MLOAD PUSH4 0xA9059CBB PUSH1 0xE0 SHL PUSH1 0x20 DUP3 ADD MSTORE PUSH1 0x1 PUSH1 0x1 PUSH1 0xA0 SHL SUB SWAP3 SWAP1 SWAP3 AND PUSH1 0x24 DUP4 ADD MSTORE PUSH1 0x44 DUP1 DUP4 ADD SWAP4 SWAP1 SWAP4 MSTORE SWAP2 DUP2 MSTORE PUSH2 0x16AC SWAP2 PUSH2 0x16A7 PUSH1 0x64 DUP4 PUSH2 0x15B5 JUMP JUMPDEST CALLER PUSH1 0x0 SWAP1 DUP2 MSTORE PUSH32 0xC1BC6A2FAC80E57151D2B67A9CFF2A0B4025E23176833FF813D9A94A389F8A53 PUSH1 0x20 MSTORE PUSH1 0x40 SWAP1 KECCAK256 SLOAD PUSH32 0xB19546DFF01E856FB3F010C267A7B1C60363CF8A4664E21CC89C26224620214E SWAP1 PUSH1 0xFF AND ISZERO PUSH2 0x1839 JUMPI POP JUMP JUMPDEST PUSH1 0x44 SWAP1 PUSH1 0x40 MLOAD SWAP1 PUSH4 0xE2517D3F PUSH1 0xE0 SHL DUP3 MSTORE CALLER PUSH1 0x4 DUP4 ADD MSTORE PUSH1 0x24 DUP3 ADD MSTORE REVERT JUMPDEST DUP1 PUSH1 0x0 MSTORE PUSH1 0x2 PUSH1 0x20 MSTORE PUSH1 0x40 PUSH1 0x0 KECCAK256 CALLER PUSH1 0x0 MSTORE PUSH1 0x20 MSTORE PUSH1 0xFF PUSH1 0x40 PUSH1 0x0 KECCAK256 SLOAD AND ISZERO PUSH2 0x1839 JUMPI POP JUMP JUMPDEST SWAP1 PUSH1 0x0 SWAP2 DUP1 DUP4 MSTORE PUSH1 0x2 PUSH1 0x20 MSTORE PUSH1 0x40 DUP4 KECCAK256 SWAP2 PUSH1 0x1 DUP1 PUSH1 0xA0 SHL SUB AND SWAP2 DUP3 DUP5 MSTORE PUSH1 0x20 MSTORE PUSH1 0xFF PUSH1 0x40 DUP5 KECCAK256 SLOAD AND ISZERO PUSH1 0x0 EQ PUSH2 0x18F8 JUMPI DUP1 DUP4 MSTORE PUSH1 0x2 PUSH1 0x20 MSTORE PUSH1 0x40 DUP4 KECCAK256 DUP3 DUP5 MSTORE PUSH1 0x20 MSTORE PUSH1 0x40 DUP4 KECCAK256 PUSH1 0x1 PUSH1 0xFF NOT DUP3 SLOAD AND OR SWAP1 SSTORE PUSH32 0x2F8788117E7EFF1D82E926EC794901D17C78024A50270940304540A733656F0D CALLER SWAP4 DUP1 LOG4 PUSH1 0x1 SWAP1 JUMP JUMPDEST POP POP SWAP1 JUMP JUMPDEST SWAP1 PUSH1 0x0 SWAP2 DUP1 DUP4 MSTORE PUSH1 0x2 PUSH1 0x20 MSTORE PUSH1 0x40 DUP4 KECCAK256 SWAP2 PUSH1 0x1 DUP1 PUSH1 0xA0 SHL SUB AND SWAP2 DUP3 DUP5 MSTORE PUSH1 0x20 MSTORE PUSH1 0xFF PUSH1 0x40 DUP5 KECCAK256 SLOAD AND PUSH1 0x0 EQ PUSH2 0x18F8 JUMPI DUP1 DUP4 MSTORE PUSH1 0x2 PUSH1 0x20 MSTORE PUSH1 0x40 DUP4 KECCAK256 DUP3 DUP5 MSTORE PUSH1 0x20 MSTORE PUSH1 0x40 DUP4 KECCAK256 PUSH1 0xFF NOT DUP2 SLOAD AND SWAP1 SSTORE PUSH32 0xF6391F5C32D9C69D2A47EA670B442974B53935D1EDC7FD64EB21E047A839171B CALLER SWAP4 DUP1 LOG4 PUSH1 0x1 SWAP1 JUMP JUMPDEST SWAP1 PUSH1 0x0 PUSH1 0x20 SWAP2 DUP3 DUP2 MLOAD SWAP2 ADD DUP3 DUP6 GAS CALL ISZERO PUSH2 0x19D0 JUMPI PUSH1 0x0 MLOAD RETURNDATASIZE PUSH2 0x19C7 JUMPI POP PUSH1 0x1 PUSH1 0x1 PUSH1 0xA0 SHL SUB DUP2 AND EXTCODESIZE ISZERO JUMPDEST PUSH2 0x19A5 JUMPI POP JUMP JUMPDEST PUSH1 0x40 MLOAD PUSH4 0x5274AFE7 PUSH1 0xE0 SHL DUP2 MSTORE PUSH1 0x1 PUSH1 0x1 PUSH1 0xA0 SHL SUB SWAP1 SWAP2 AND PUSH1 0x4 DUP3 ADD MSTORE PUSH1 0x24 SWAP1 REVERT JUMPDEST PUSH1 0x1 EQ ISZERO PUSH2 0x199E JUMP JUMPDEST PUSH1 0x40 MLOAD RETURNDATASIZE PUSH1 0x0 DUP3 RETURNDATACOPY RETURNDATASIZE SWAP1 REVERT INVALID SWAP8 PUSH7 0x7070C54EF182B0 CREATE2 DUP6 DUP12 SUB 0x4B 0xEA 0xC1 0xB6 RETURN ADDMOD SWAP11 LOG2 0xD3 XOR DUP12 0xB1 0xE8 SWAP3 SWAP16 0x4F 0xA9 0xB9 0x29 LOG2 PUSH5 0x6970667358 0x22 SLT KECCAK256 0xC7 CALLDATASIZE ADDMOD 0x2F PUSH30 0x438F23AF139BEBFAB3D91C1FF35DE14024F50AB169977E15DC84CB64736F PUSH13 0x634300081800332F8788117E7E SELFDESTRUCT SAR DUP3 0xE9 0x26 0xEC PUSH26 0x4901D17C78024A50270940304540A733656F0D00000000000000 "},"methodIdentifiers":{"AAVE_POOL()":"08a01675","ADDRESSES_PROVIDER()":"0542975c","BPS()":"249d39e9","DEFAULT_ADMIN_ROLE()":"a217fddf","MAX_SERVICE_FEE()":"14d90e1b","OPERATOR_ROLE()":"f5b541a6","OWNER_ROLE()":"e58378bb","authorizedCallers(address)":"536fff6c","depositCollateral(address,uint256)":"a5d5db0c","emergencyWithdraw(address,uint256)":"95ccea67","executeArbitrage(address,address,uint256)":"650f84be","executeFlashLoan(address,uint256)":"6065c245","executeLiquidation(address,address,address,uint256)":"05c3786d","executeOperation(address,uint256,uint256,address,bytes)":"1b11d0ff","executeRefinance(address,address,address,uint256)":"81d03450","getContractBalance(address)":"43ab265f","getRoleAdmin(bytes32)":"248a9ca3","getStrategyProfit(uint8)":"eda7ddf0","getTotalProfit(address)":"8233fbcb","getUserCollateral(address,address)":"a55e8668","grantRole(bytes32,address)":"2f2ff15d","hasRole(bytes32,address)":"91d14854","pause()":"8456cb59","paused()":"5c975abb","renounceRole(bytes32,address)":"36568abe","revokeRole(bytes32,address)":"d547741f","serviceFeeBps()":"529c5514","setAuthorizedCaller(address,bool)":"454bbd29","setServiceFee(uint256)":"5cdf76f8","setTreasury(address)":"f0f44260","strategyProfits(uint8)":"057243b7","supportsInterface(bytes4)":"01ffc9a7","totalProfitsByAsset(address)":"014cce45","treasury()":"61d027b3","uniswapV3Router()":"2c76d7a6","unpause()":"3f4ba83a","userCollateral(address,address)":"2b92a07d","withdrawCollateral(address,uint256)":"350c35e9"}},"storageLayout":{"storage":[{"astId":1838,"contract":"contracts/FlashLoanManager.sol:FlashLoanManager","label":"_status","offset":0,"slot":"0","type":"t_uint256"},{"astId":1728,"contract":"contracts/FlashLoanManager.sol:FlashLoanManager","label":"_paused","offset":0,"slot":"1","type":"t_bool"},{"astId":27,"contract":"contracts/FlashLoanManager.sol:FlashLoanManager","label":"_roles","offset":0,"slot":"2","type":"t_mapping(t_bytes32,t_struct(RoleData)22_storage)"},{"astId":2087,"contract":"contracts/FlashLoanManager.sol:FlashLoanManager","label":"ADDRESSES_PROVIDER","offset":0,"slot":"3","type":"t_contract(IPoolAddressesProvider)1974"},{"astId":2090,"contract":"contracts/FlashLoanManager.sol:FlashLoanManager","label":"AAVE_POOL","offset":0,"slot":"4","type":"t_contract(IPool)2018"},{"astId":2093,"contract":"contracts/FlashLoanManager.sol:FlashLoanManager","label":"uniswapV3Router","offset":0,"slot":"5","type":"t_contract(ISwapRouter)2061"},{"astId":2095,"contract":"contracts/FlashLoanManager.sol:FlashLoanManager","label":"treasury","offset":0,"slot":"6","type":"t_address"},{"astId":2098,"contract":"contracts/FlashLoanManager.sol:FlashLoanManager","label":"serviceFeeBps","offset":0,"slot":"7","type":"t_uint256"},{"astId":2110,"contract":"contracts/FlashLoanManager.sol:FlashLoanManager","label":"userCollateral","offset":0,"slot":"8","type":"t_mapping(t_address,t_mapping(t_address,t_uint256))"},{"astId":2130,"contract":"contracts/FlashLoanManager.sol:FlashLoanManager","label":"totalProfitsByAsset","offset":0,"slot":"9","type":"t_mapping(t_address,t_uint256)"},{"astId":2135,"contract":"contracts/FlashLoanManager.sol:FlashLoanManager","label":"strategyProfits","offset":0,"slot":"10","type":"t_mapping(t_enum(StrategyType)2114,t_uint256)"},{"astId":2139,"contract":"contracts/FlashLoanManager.sol:FlashLoanManager","label":"authorizedCallers","offset":0,"slot":"11","type":"t_mapping(t_address,t_bool)"}],"types":{"t_address":{"encoding":"inplace","label":"address","numberOfBytes":"20"},"t_bool":{"encoding":"inplace","label":"bool","numberOfBytes":"1"},"t_bytes32":{"encoding":"inplace","label":"bytes32","numberOfBytes":"32"},"t_contract(IPool)2018":{"encoding":"inplace","label":"contract IPool","numberOfBytes":"20"},"t_contract(IPoolAddressesProvider)1974":{"encoding":"inplace","label":"contract IPoolAddressesProvider","numberOfBytes":"20"},"t_contract(ISwapRouter)2061":{"encoding":"inplace","label":"contract ISwapRouter","numberOfBytes":"20"},"t_enum(StrategyType)2114":{"encoding":"inplace","label":"enum FlashLoanManager.StrategyType","numberOfBytes":"1"},"t_mapping(t_address,t_bool)":{"encoding":"mapping","key":"t_address","label":"mapping(address => bool)","numberOfBytes":"32","value":"t_bool"},"t_mapping(t_address,t_mapping(t_address,t_uint256))":{"encoding":"mapping","key":"t_address","label":"mapping(address => mapping(address => uint256))","numberOfBytes":"32","value":"t_mapping(t_address,t_uint256)"},"t_mapping(t_address,t_uint256)":{"encoding":"mapping","key":"t_address","label":"mapping(address => uint256)","numberOfBytes":"32","value":"t_uint256"},"t_mapping(t_bytes32,t_struct(RoleData)22_storage)":{"encoding":"mapping","key":"t_bytes32","label":"mapping(bytes32 => struct AccessControl.RoleData)","numberOfBytes":"32","value":"t_struct(RoleData)22_storage"},"t_mapping(t_enum(StrategyType)2114,t_uint256)":{"encoding":"mapping","key":"t_enum(StrategyType)2114","label":"mapping(enum FlashLoanManager.StrategyType => uint256)","numberOfBytes":"32","value":"t_uint256"},"t_struct(RoleData)22_storage":{"encoding":"inplace","label":"struct AccessControl.RoleData","members":[{"astId":19,"contract":"contracts/FlashLoanManager.sol:FlashLoanManager","label":"hasRole","offset":0,"slot":"0","type":"t_mapping(t_address,t_bool)"},{"astId":21,"contract":"contracts/FlashLoanManager.sol:FlashLoanManager","label":"adminRole","offset":0,"slot":"1","type":"t_bytes32"}],"numberOfBytes":"64"},"t_uint256":{"encoding":"inplace","label":"uint256","numberOfBytes":"32"}}}}}}