{"contracts/MockAavePool.sol":{"MockAavePool":{"abi":[{"inputs":[],"name":"ADDRESSES_PROVIDER","outputs":[{"internalType":"address","name":"","type":"address"}],"stateMutability":"view","type":"function"},{"inputs":[{"internalType":"address","name":"receiverAddress","type":"address"},{"internalType":"address","name":"asset","type":"address"},{"internalType":"uint256","name":"amount","type":"uint256"},{"internalType":"bytes","name":"params","type":"bytes"},{"internalType":"uint16","name":"","type":"uint16"}],"name":"flashLoanSimple","outputs":[],"stateMutability":"nonpayable","type":"function"},{"inputs":[],"name":"getPool","outputs":[{"internalType":"address","name":"","type":"address"}],"stateMutability":"view","type":"function"},{"inputs":[{"internalType":"address","name":"","type":"address"}],"name":"getUserAccountData","outputs":[{"internalType":"uint256","name":"","type":"uint256"},{"internalType":"uint256","name":"","type":"uint256"},{"internalType":"uint256","name":"","type":"uint256"},{"internalType":"uint256","name":"","type":"uint256"},{"internalType":"uint256","name":"","type":"uint256"},{"internalType":"uint256","name":"","type":"uint256"}],"stateMutability":"view","type":"function"},{"inputs":[{"internalType":"address","name":"","type":"address"},{"internalType":"address","name":"","type":"address"},{"internalType":"address","name":"","type":"address"},{"internalType":"uint256","name":"","type":"uint256"},{"internalType":"bool","name":"","type":"bool"}],"name":"liquidationCall","outputs":[{"internalType":"uint256","name":"","type":"uint256"}],"stateMutability":"view","type":"function"},{"inputs":[{"internalType":"uint256","name":"_healthFactor","type":"uint256"}],"name":"setHealthFactor","outputs":[],"stateMutability":"nonpayable","type":"function"},{"inputs":[{"internalType":"uint256","name":"_result","type":"uint256"}],"name":"setLiquidationResult","outputs":[],"stateMutability":"nonpayable","type":"function"}],"evm":{"bytecode":{"linkReferences":{},"object":"6080806040523461001f5760008055600060015561032790816100258239f35b600080fdfe608060408181526004918236101561001657600080fd5b600092833560e01c918262a718a91461027457508163026b1d5f146102595781630542975c1461023c57816331111708146102235783826342b0b77c146100d357508163be105521146100b9575063bf92857c1461007357600080fd5b346100b55760203660031901126100b55760c09161008f6102c0565b5080549080835193818552816020860152840152806060840152608083015260a0820152f35b5080fd5b8390346100b55760203660031901126100b5573560015580f35b915091346100b55760a03660031901126100b5576100ef6102c0565b906100f86102db565b9367ffffffffffffffff9260643584811161021f573660238201121561021f57808301359185831161021b57366024848401011161021b5760843561ffff81160361021b57602497601f9760209460c460018060a01b03938285938b519e8f998a988995631b11d0ff60e01b8752168d8601526044358286015287604486015230606486015260a060848601528260a48601520184840137848382840101528c199c8d9101168101030193165af18015610211576101b4578580f35b6020933d602011610209575b601f8501168501928311858410176101f65750526020908201829003126100b55751801515036101f35738808080808580f35b80fd5b634e487b7160e01b865260419052602485fd5b3d94506101c0565b82513d88823e3d90fd5b8680fd5b8580fd5b8390346100b55760203660031901126100b55735815580f35b5050346100b557816003193601126100b557602090516101238152f35b5050346100b557816003193601126100b55760209051308152f35b8490346100b55760a03660031901126100b55761028f6102c0565b506102986102db565b506044356001600160a01b038116036100b557608435801515036100b5576020906001548152f35b600435906001600160a01b03821682036102d657565b600080fd5b602435906001600160a01b03821682036102d65756fea26469706673582212205aa1baab40f8230511af0b1c8ff535413f638575a0f16d6554a074c6a56817a464736f6c63430008180033","opcodes":"PUSH1 0x80 DUP1 PUSH1 0x40 MSTORE CALLVALUE PUSH2 0x1F JUMPI PUSH1 0x0 DUP1 SSTORE PUSH1 0x0 PUSH1 0x1 SSTORE PUSH2 0x327 SWAP1 DUP2 PUSH2 0x25 DUP3 CODECOPY RETURN JUMPDEST PUSH1 0x0 DUP1 REVERT INVALID PUSH1 0x80 PUSH1 0x40 DUP2 DUP2 MSTORE PUSH1 0x4 SWAP2 DUP3 CALLDATASIZE LT ISZERO PUSH2 0x16 JUMPI PUSH1 0x0 DUP1 REVERT JUMPDEST PUSH1 0x0 SWAP3 DUP4 CALLDATALOAD PUSH1 0xE0 SHR SWAP2 DUP3 PUSH3 0xA718A9 EQ PUSH2 0x274 JUMPI POP DUP2 PUSH4 0x26B1D5F EQ PUSH2 0x259 JUMPI DUP2 PUSH4 0x542975C EQ PUSH2 0x23C JUMPI DUP2 PUSH4 0x31111708 EQ PUSH2 0x223 JUMPI DUP4 DUP3 PUSH4 0x42B0B77C EQ PUSH2 0xD3 JUMPI POP DUP2 PUSH4 0xBE105521 EQ PUSH2 0xB9 JUMPI POP PUSH4 0xBF92857C EQ PUSH2 0x73 JUMPI PUSH1 0x0 DUP1 REVERT JUMPDEST CALLVALUE PUSH2 0xB5 JUMPI PUSH1 0x20 CALLDATASIZE PUSH1 0x3 NOT ADD SLT PUSH2 0xB5 JUMPI PUSH1 0xC0 SWAP2 PUSH2 0x8F PUSH2 0x2C0 JUMP JUMPDEST POP DUP1 SLOAD SWAP1 DUP1 DUP4 MLOAD SWAP4 DUP2 DUP6 MSTORE DUP2 PUSH1 0x20 DUP7 ADD MSTORE DUP5 ADD MSTORE DUP1 PUSH1 0x60 DUP5 ADD MSTORE PUSH1 0x80 DUP4 ADD MSTORE PUSH1 0xA0 DUP3 ADD MSTORE RETURN JUMPDEST POP DUP1 REVERT JUMPDEST DUP4 SWAP1 CALLVALUE PUSH2 0xB5 JUMPI PUSH1 0x20 CALLDATASIZE PUSH1 0x3 NOT ADD SLT PUSH2 0xB5 JUMPI CALLDATALOAD PUSH1 0x1 SSTORE DUP1 RETURN JUMPDEST SWAP2 POP SWAP2 CALLVALUE PUSH2 0xB5 JUMPI PUSH1 0xA0 CALLDATASIZE PUSH1 0x3 NOT ADD SLT PUSH2 0xB5 JUMPI PUSH2 0xEF PUSH2 0x2C0 JUMP JUMPDEST SWAP1 PUSH2 0xF8 PUSH2 0x2DB JUMP JUMPDEST SWAP4 PUSH8 0xFFFFFFFFFFFFFFFF SWAP3 PUSH1 0x64 CALLDATALOAD DUP5 DUP2 GT PUSH2 0x21F JUMPI CALLDATASIZE PUSH1 0x23 DUP3 ADD SLT ISZERO PUSH2 0x21F JUMPI DUP1 DUP4 ADD CALLDATALOAD SWAP2 DUP6 DUP4 GT PUSH2 0x21B JUMPI CALLDATASIZE PUSH1 0x24 DUP5 DUP5 ADD ADD GT PUSH2 0x21B JUMPI PUSH1 0x84 CALLDATALOAD PUSH2 0xFFFF DUP2 AND SUB PUSH2 0x21B JUMPI PUSH1 0x24 SWAP8 PUSH1 0x1F SWAP8 PUSH1 0x20 SWAP5 PUSH1 0xC4 PUSH1 0x1 DUP1 PUSH1 0xA0 SHL SUB SWAP4 DUP3 DUP6 SWAP4 DUP12 MLOAD SWAP15 DUP16 SWAP10 DUP11 SWAP9 DUP10 SWAP6 PUSH4 0x1B11D0FF PUSH1 0xE0 SHL DUP8 MSTORE AND DUP14 DUP7 ADD MSTORE PUSH1 0x44 CALLDATALOAD DUP3 DUP7 ADD MSTORE DUP8 PUSH1 0x44 DUP7 ADD MSTORE ADDRESS PUSH1 0x64 DUP7 ADD MSTORE PUSH1 0xA0 PUSH1 0x84 DUP7 ADD MSTORE DUP3 PUSH1 0xA4 DUP7 ADD MSTORE ADD DUP5 DUP5 ADD CALLDATACOPY DUP5 DUP4 DUP3 DUP5 ADD ADD MSTORE DUP13 NOT SWAP13 DUP14 SWAP2 ADD AND DUP2 ADD SUB ADD SWAP4 AND GAS CALL DUP1 ISZERO PUSH2 0x211 JUMPI PUSH2 0x1B4 JUMPI DUP6 DUP1 RETURN JUMPDEST PUSH1 0x20 SWAP4 RETURNDATASIZE PUSH1 0x20 GT PUSH2 0x209 JUMPI JUMPDEST PUSH1 0x1F DUP6 ADD AND DUP6 ADD SWAP3 DUP4 GT DUP6 DUP5 LT OR PUSH2 0x1F6 JUMPI POP MSTORE PUSH1 0x20 SWAP1 DUP3 ADD DUP3 SWAP1 SUB SLT PUSH2 0xB5 JUMPI MLOAD DUP1 ISZERO ISZERO SUB PUSH2 0x1F3 JUMPI CODESIZE DUP1 DUP1 DUP1 DUP1 DUP6 DUP1 RETURN JUMPDEST DUP1 REVERT JUMPDEST PUSH4 0x4E487B71 PUSH1 0xE0 SHL DUP7 MSTORE PUSH1 0x41 SWAP1 MSTORE PUSH1 0x24 DUP6 REVERT JUMPDEST RETURNDATASIZE SWAP5 POP PUSH2 0x1C0 JUMP JUMPDEST DUP3 MLOAD RETURNDATASIZE DUP9 DUP3 RETURNDATACOPY RETURNDATASIZE SWAP1 REVERT JUMPDEST DUP7 DUP1 REVERT JUMPDEST DUP6 DUP1 REVERT JUMPDEST DUP4 SWAP1 CALLVALUE PUSH2 0xB5 JUMPI PUSH1 0x20 CALLDATASIZE PUSH1 0x3 NOT ADD SLT PUSH2 0xB5 JUMPI CALLDATALOAD DUP2 SSTORE DUP1 RETURN JUMPDEST POP POP CALLVALUE PUSH2 0xB5 JUMPI DUP2 PUSH1 0x3 NOT CALLDATASIZE ADD SLT PUSH2 0xB5 JUMPI PUSH1 0x20 SWAP1 MLOAD PUSH2 0x123 DUP2 MSTORE RETURN JUMPDEST POP POP CALLVALUE PUSH2 0xB5 JUMPI DUP2 PUSH1 0x3 NOT CALLDATASIZE ADD SLT PUSH2 0xB5 JUMPI PUSH1 0x20 SWAP1 MLOAD ADDRESS DUP2 MSTORE RETURN JUMPDEST DUP5 SWAP1 CALLVALUE PUSH2 0xB5 JUMPI PUSH1 0xA0 CALLDATASIZE PUSH1 0x3 NOT ADD SLT PUSH2 0xB5 JUMPI PUSH2 0x28F PUSH2 0x2C0 JUMP JUMPDEST POP PUSH2 0x298 PUSH2 0x2DB JUMP JUMPDEST POP PUSH1 0x44 CALLDATALOAD PUSH1 0x1 PUSH1 0x1 PUSH1 0xA0 SHL SUB DUP2 AND SUB PUSH2 0xB5 JUMPI PUSH1 0x84 CALLDATALOAD DUP1 ISZERO ISZERO SUB PUSH2 0xB5 JUMPI PUSH1 0x20 SWAP1 PUSH1 0x1 SLOAD DUP2 MSTORE RETURN JUMPDEST PUSH1 0x4 CALLDATALOAD SWAP1 PUSH1 0x1 PUSH1 0x1 PUSH1 0xA0 SHL SUB DUP3 AND DUP3 SUB PUSH2 0x2D6 JUMPI JUMP JUMPDEST PUSH1 0x0 DUP1 REVERT JUMPDEST PUSH1 0x24 CALLDATALOAD SWAP1 PUSH1 0x1 PUSH1 0x1 PUSH1 0xA0 SHL SUB DUP3 AND DUP3 SUB PUSH2 0x2D6 JUMPI JUMP INVALID LOG2 PUSH5 0x6970667358 0x22 SLT KECCAK256 GAS LOG1 0xBA 0xAB BLOCKHASH 0xF8 0x23 SDIV GT 0xAF SIGNEXTEND SHR DUP16 CREATE2 CALLDATALOAD COINBASE EXTCODEHASH PUSH4 0x8575A0F1 PUSH14 0x6554A074C6A56817A464736F6C63 NUMBER STOP ADDMOD XOR STOP CALLER "},"methodIdentifiers":{"ADDRESSES_PROVIDER()":"0542975c","flashLoanSimple(address,address,uint256,bytes,uint16)":"42b0b77c","getPool()":"026b1d5f","getUserAccountData(address)":"bf92857c","liquidationCall(address,address,address,uint256,bool)":"00a718a9","setHealthFactor(uint256)":"31111708","setLiquidationResult(uint256)":"be105521"}},"storageLayout":{"storage":[{"astId":2963,"contract":"contracts/MockAavePool.sol:MockAavePool","label":"healthFactor","offset":0,"slot":"0","type":"t_uint256"},{"astId":2966,"contract":"contracts/MockAavePool.sol:MockAavePool","label":"liquidationResult","offset":0,"slot":"1","type":"t_uint256"}],"types":{"t_uint256":{"encoding":"inplace","label":"uint256","numberOfBytes":"32"}}}}}}