{"contracts/MockUniswapRouter.sol":{"MockUniswapRouter":{"abi":[{"inputs":[{"internalType":"address","name":"token","type":"address"}],"name":"balanceOf","outputs":[{"internalType":"uint256","name":"","type":"uint256"}],"stateMutability":"view","type":"function"},{"inputs":[{"components":[{"internalType":"address","name":"tokenIn","type":"address"},{"internalType":"address","name":"tokenOut","type":"address"},{"internalType":"uint24","name":"fee","type":"uint24"},{"internalType":"address","name":"recipient","type":"address"},{"internalType":"uint256","name":"deadline","type":"uint256"},{"internalType":"uint256","name":"amountIn","type":"uint256"},{"internalType":"uint256","name":"amountOutMinimum","type":"uint256"},{"internalType":"uint160","name":"sqrtPriceLimitX96","type":"uint160"}],"internalType":"struct MockUniswapRouter.ExactInputSingleParams","name":"params","type":"tuple"}],"name":"exactInputSingle","outputs":[{"internalType":"uint256","name":"amountOut","type":"uint256"}],"stateMutability":"payable","type":"function"},{"inputs":[{"internalType":"address","name":"","type":"address"},{"internalType":"address","name":"","type":"address"}],"name":"rates","outputs":[{"internalType":"uint256","name":"num","type":"uint256"},{"internalType":"uint256","name":"den","type":"uint256"},{"internalType":"bool","name":"set","type":"bool"}],"stateMutability":"view","type":"function"},{"inputs":[{"internalType":"address","name":"tokenIn","type":"address"},{"internalType":"address","name":"tokenOut","type":"address"},{"internalType":"uint256","name":"numerator","type":"uint256"},{"internalType":"uint256","name":"denominator","type":"uint256"}],"name":"setRate","outputs":[],"stateMutability":"nonpayable","type":"function"}],"evm":{"bytecode":{"linkReferences":{},"object":"60808060405234610016576105f0908161001c8239f35b600080fdfe608060409080825260048036101561001657600080fd5b600091823560e01c908163414bf3891461020d5750806370a08231146101725780637b0cf44d1461010c5763a36b7d7f1461005057600080fd5b34610108576080366003190112610108576100696104db565b906100726104f6565b906064359081156100dd5750846002939495519261008f8461054e565b604435845260208401928352818401956001875260018060a01b0380911688528760205282882091168752602052852091518255516001820155019051151560ff8019835416911617905580f35b606490602087519162461bcd60e51b83528201526005602482015264064656e3d360dc1b6044820152fd5b5080fd5b8284346101085780600319360112610108578060609261012a6104db565b6101326104f6565b9060018060a01b0380911683528260205283832091168252602052209081549160ff60026001830154920154169082519384526020840152151590820152f35b509134610108576020928360031936011261020957836001600160a01b036101986104db565b169160248451809481936370a0823160e01b835230908301525afa9283156101fe5780936101c9575b505051908152f35b909192508382813d83116101f7575b6101e28183610580565b810103126101f45750519038806101c1565b80fd5b503d6101d8565b8251903d90823e3d90fd5b8280fd5b918491506101003660031901126104d7576001600160a01b03928361023061050c565b16156104a75750608435421161047a5782610249610522565b168460a43584516323b872dd60e01b8152338582015260249330858301528260448301528160648160209b8c945af1908115610470578391610453575b50156104205785610295610522565b168252818752848220866102a7610538565b16835287528482208551916102bb8361054e565b8682549384815260ff60026001860154958d8401968752015416151591829101526000146104175782810292818404149015171561040557519081156103f35704945b60c43586106103be578681610311610538565b1691604461031d61050c565b858951958694859363a9059cbb60e01b8552168a8401528b898401525af19182156103b35791610386575b501561035657505051908152f35b600d9085606494519362461bcd60e51b85528401528201526c1c185e5bdd5d0819985a5b1959609a1b6044820152fd5b6103a69150863d88116103ac575b61039e8183610580565b8101906105a2565b86610348565b503d610394565b8551903d90823e3d90fd5b845162461bcd60e51b81528085018890526010818501526f1a5b9cdd59999a58da595b9d081bdd5d60821b6044820152606490fd5b5050634e487b7160e01b815260128352fd5b5050634e487b7160e01b815260118352fd5b915050946102fe565b845162461bcd60e51b8152808501889052600e818501526d1c1d5b1b081a5b8819985a5b195960921b6044820152606490fd5b61046a9150883d8a116103ac5761039e8183610580565b88610286565b86513d85823e3d90fd5b6020606492519162461bcd60e51b83528201526008602482015267646561646c696e6560c01b6044820152fd5b602060649262461bcd60e51b8352820152600d60248201526c189859081c9958da5c1a595b9d609a1b6044820152fd5b8380fd5b600435906001600160a01b03821682036104f157565b600080fd5b602435906001600160a01b03821682036104f157565b6064356001600160a01b03811681036104f15790565b6004356001600160a01b03811681036104f15790565b6024356001600160a01b03811681036104f15790565b6060810190811067ffffffffffffffff82111761056a57604052565b634e487b7160e01b600052604160045260246000fd5b90601f8019910116810190811067ffffffffffffffff82111761056a57604052565b908160209103126104f1575180151581036104f1579056fea2646970667358221220935b0ddc0b0f197956cd2db519d04806f99ef0a9289bf4f7c26cc852166c711864736f6c63430008180033","opcodes":"PUSH1 0x80 DUP1 PUSH1 0x40 MSTORE CALLVALUE PUSH2 0x16 JUMPI PUSH2 0x5F0 SWAP1 DUP2 PUSH2 0x1C DUP3 CODECOPY RETURN JUMPDEST PUSH1 0x0 DUP1 REVERT INVALID PUSH1 0x80 PUSH1 0x40 SWAP1 DUP1 DUP3 MSTORE PUSH1 0x4 DUP1 CALLDATASIZE LT ISZERO PUSH2 0x16 JUMPI PUSH1 0x0 DUP1 REVERT JUMPDEST PUSH1 0x0 SWAP2 DUP3 CALLDATALOAD PUSH1 0xE0 SHR SWAP1 DUP2 PUSH4 0x414BF389 EQ PUSH2 0x20D JUMPI POP DUP1 PUSH4 0x70A08231 EQ PUSH2 0x172 JUMPI DUP1 PUSH4 0x7B0CF44D EQ PUSH2 0x10C JUMPI PUSH4 0xA36B7D7F EQ PUSH2 0x50 JUMPI PUSH1 0x0 DUP1 REVERT JUMPDEST CALLVALUE PUSH2 0x108 JUMPI PUSH1 0x80 CALLDATASIZE PUSH1 0x3 NOT ADD SLT PUSH2 0x108 JUMPI PUSH2 0x69 PUSH2 0x4DB JUMP JUMPDEST SWAP1 PUSH2 0x72 PUSH2 0x4F6 JUMP JUMPDEST SWAP1 PUSH1 0x64 CALLDATALOAD SWAP1 DUP2 ISZERO PUSH2 0xDD JUMPI POP DUP5 PUSH1 0x2 SWAP4 SWAP5 SWAP6 MLOAD SWAP3 PUSH2 0x8F DUP5 PUSH2 0x54E JUMP JUMPDEST PUSH1 0x44 CALLDATALOAD DUP5 MSTORE PUSH1 0x20 DUP5 ADD SWAP3 DUP4 MSTORE DUP2 DUP5 ADD SWAP6 PUSH1 0x1 DUP8 MSTORE PUSH1 0x1 DUP1 PUSH1 0xA0 SHL SUB DUP1 SWAP2 AND DUP9 MSTORE DUP8 PUSH1 0x20 MSTORE DUP3 DUP9 KECCAK256 SWAP2 AND DUP8 MSTORE PUSH1 0x20 MSTORE DUP6 KECCAK256 SWAP2 MLOAD DUP3 SSTORE MLOAD PUSH1 0x1 DUP3 ADD SSTORE ADD SWAP1 MLOAD ISZERO ISZERO PUSH1 0xFF DUP1 NOT DUP4 SLOAD AND SWAP2 AND OR SWAP1 SSTORE DUP1 RETURN JUMPDEST PUSH1 0x64 SWAP1 PUSH1 0x20 DUP8 MLOAD SWAP2 PUSH3 0x461BCD PUSH1 0xE5 SHL DUP4 MSTORE DUP3 ADD MSTORE PUSH1 0x5 PUSH1 0x24 DUP3 ADD MSTORE PUSH5 0x64656E3D3 PUSH1 0xDC SHL PUSH1 0x44 DUP3 ADD MSTORE REVERT JUMPDEST POP DUP1 REVERT JUMPDEST DUP3 DUP5 CALLVALUE PUSH2 0x108 JUMPI DUP1 PUSH1 0x3 NOT CALLDATASIZE ADD SLT PUSH2 0x108 JUMPI DUP1 PUSH1 0x60 SWAP3 PUSH2 0x12A PUSH2 0x4DB JUMP JUMPDEST PUSH2 0x132 PUSH2 0x4F6 JUMP JUMPDEST SWAP1 PUSH1 0x1 DUP1 PUSH1 0xA0 SHL SUB DUP1 SWAP2 AND DUP4 MSTORE DUP3 PUSH1 0x20 MSTORE DUP4 DUP4 KECCAK256 SWAP2 AND DUP3 MSTORE PUSH1 0x20 MSTORE KECCAK256 SWAP1 DUP2 SLOAD SWAP2 PUSH1 0xFF PUSH1 0x2 PUSH1 0x1 DUP4 ADD SLOAD SWAP3 ADD SLOAD AND SWAP1 DUP3 MLOAD SWAP4 DUP5 MSTORE PUSH1 0x20 DUP5 ADD MSTORE ISZERO ISZERO SWAP1 DUP3 ADD MSTORE RETURN JUMPDEST POP SWAP2 CALLVALUE PUSH2 0x108 JUMPI PUSH1 0x20 SWAP3 DUP4 PUSH1 0x3 NOT CALLDATASIZE ADD SLT PUSH2 0x209 JUMPI DUP4 PUSH1 0x1 PUSH1 0x1 PUSH1 0xA0 SHL SUB PUSH2 0x198 PUSH2 0x4DB JUMP JUMPDEST AND SWAP2 PUSH1 0x24 DUP5 MLOAD DUP1 SWAP5 DUP2 SWAP4 PUSH4 0x70A08231 PUSH1 0xE0 SHL DUP4 MSTORE ADDRESS SWAP1 DUP4 ADD MSTORE GAS STATICCALL SWAP3 DUP4 ISZERO PUSH2 0x1FE JUMPI DUP1 SWAP4 PUSH2 0x1C9 JUMPI JUMPDEST POP POP MLOAD SWAP1 DUP2 MSTORE RETURN JUMPDEST SWAP1 SWAP2 SWAP3 POP DUP4 DUP3 DUP2 RETURNDATASIZE DUP4 GT PUSH2 0x1F7 JUMPI JUMPDEST PUSH2 0x1E2 DUP2 DUP4 PUSH2 0x580 JUMP JUMPDEST DUP2 ADD SUB SLT PUSH2 0x1F4 JUMPI POP MLOAD SWAP1 CODESIZE DUP1 PUSH2 0x1C1 JUMP JUMPDEST DUP1 REVERT JUMPDEST POP RETURNDATASIZE PUSH2 0x1D8 JUMP JUMPDEST DUP3 MLOAD SWAP1 RETURNDATASIZE SWAP1 DUP3 RETURNDATACOPY RETURNDATASIZE SWAP1 REVERT JUMPDEST DUP3 DUP1 REVERT JUMPDEST SWAP2 DUP5 SWAP2 POP PUSH2 0x100 CALLDATASIZE PUSH1 0x3 NOT ADD SLT PUSH2 0x4D7 JUMPI PUSH1 0x1 PUSH1 0x1 PUSH1 0xA0 SHL SUB SWAP3 DUP4 PUSH2 0x230 PUSH2 0x50C JUMP JUMPDEST AND ISZERO PUSH2 0x4A7 JUMPI POP PUSH1 0x84 CALLDATALOAD TIMESTAMP GT PUSH2 0x47A JUMPI DUP3 PUSH2 0x249 PUSH2 0x522 JUMP JUMPDEST AND DUP5 PUSH1 0xA4 CALLDATALOAD DUP5 MLOAD PUSH4 0x23B872DD PUSH1 0xE0 SHL DUP2 MSTORE CALLER DUP6 DUP3 ADD MSTORE PUSH1 0x24 SWAP4 ADDRESS DUP6 DUP4 ADD MSTORE DUP3 PUSH1 0x44 DUP4 ADD MSTORE DUP2 PUSH1 0x64 DUP2 PUSH1 0x20 SWAP12 DUP13 SWAP5 GAS CALL SWAP1 DUP2 ISZERO PUSH2 0x470 JUMPI DUP4 SWAP2 PUSH2 0x453 JUMPI JUMPDEST POP ISZERO PUSH2 0x420 JUMPI DUP6 PUSH2 0x295 PUSH2 0x522 JUMP JUMPDEST AND DUP3 MSTORE DUP2 DUP8 MSTORE DUP5 DUP3 KECCAK256 DUP7 PUSH2 0x2A7 PUSH2 0x538 JUMP JUMPDEST AND DUP4 MSTORE DUP8 MSTORE DUP5 DUP3 KECCAK256 DUP6 MLOAD SWAP2 PUSH2 0x2BB DUP4 PUSH2 0x54E JUMP JUMPDEST DUP7 DUP3 SLOAD SWAP4 DUP5 DUP2 MSTORE PUSH1 0xFF PUSH1 0x2 PUSH1 0x1 DUP7 ADD SLOAD SWAP6 DUP14 DUP5 ADD SWAP7 DUP8 MSTORE ADD SLOAD AND ISZERO ISZERO SWAP2 DUP3 SWAP2 ADD MSTORE PUSH1 0x0 EQ PUSH2 0x417 JUMPI DUP3 DUP2 MUL SWAP3 DUP2 DUP5 DIV EQ SWAP1 ISZERO OR ISZERO PUSH2 0x405 JUMPI MLOAD SWAP1 DUP2 ISZERO PUSH2 0x3F3 JUMPI DIV SWAP5 JUMPDEST PUSH1 0xC4 CALLDATALOAD DUP7 LT PUSH2 0x3BE JUMPI DUP7 DUP2 PUSH2 0x311 PUSH2 0x538 JUMP JUMPDEST AND SWAP2 PUSH1 0x44 PUSH2 0x31D PUSH2 0x50C JUMP JUMPDEST DUP6 DUP10 MLOAD SWAP6 DUP7 SWAP5 DUP6 SWAP4 PUSH4 0xA9059CBB PUSH1 0xE0 SHL DUP6 MSTORE AND DUP11 DUP5 ADD MSTORE DUP12 DUP10 DUP5 ADD MSTORE GAS CALL SWAP2 DUP3 ISZERO PUSH2 0x3B3 JUMPI SWAP2 PUSH2 0x386 JUMPI JUMPDEST POP ISZERO PUSH2 0x356 JUMPI POP POP MLOAD SWAP1 DUP2 MSTORE RETURN JUMPDEST PUSH1 0xD SWAP1 DUP6 PUSH1 0x64 SWAP5 MLOAD SWAP4 PUSH3 0x461BCD PUSH1 0xE5 SHL DUP6 MSTORE DUP5 ADD MSTORE DUP3 ADD MSTORE PUSH13 0x1C185E5BDD5D0819985A5B1959 PUSH1 0x9A SHL PUSH1 0x44 DUP3 ADD MSTORE REVERT JUMPDEST PUSH2 0x3A6 SWAP2 POP DUP7 RETURNDATASIZE DUP9 GT PUSH2 0x3AC JUMPI JUMPDEST PUSH2 0x39E DUP2 DUP4 PUSH2 0x580 JUMP JUMPDEST DUP2 ADD SWAP1 PUSH2 0x5A2 JUMP JUMPDEST DUP7 PUSH2 0x348 JUMP JUMPDEST POP RETURNDATASIZE PUSH2 0x394 JUMP JUMPDEST DUP6 MLOAD SWAP1 RETURNDATASIZE SWAP1 DUP3 RETURNDATACOPY RETURNDATASIZE SWAP1 REVERT JUMPDEST DUP5 MLOAD PUSH3 0x461BCD PUSH1 0xE5 SHL DUP2 MSTORE DUP1 DUP6 ADD DUP9 SWAP1 MSTORE PUSH1 0x10 DUP2 DUP6 ADD MSTORE PUSH16 0x1A5B9CDD59999A58DA595B9D081BDD5D PUSH1 0x82 SHL PUSH1 0x44 DUP3 ADD MSTORE PUSH1 0x64 SWAP1 REVERT JUMPDEST POP POP PUSH4 0x4E487B71 PUSH1 0xE0 SHL DUP2 MSTORE PUSH1 0x12 DUP4 MSTORE REVERT JUMPDEST POP POP PUSH4 0x4E487B71 PUSH1 0xE0 SHL DUP2 MSTORE PUSH1 0x11 DUP4 MSTORE REVERT JUMPDEST SWAP2 POP POP SWAP5 PUSH2 0x2FE JUMP JUMPDEST DUP5 MLOAD PUSH3 0x461BCD PUSH1 0xE5 SHL DUP2 MSTORE DUP1 DUP6 ADD DUP9 SWAP1 MSTORE PUSH1 0xE DUP2 DUP6 ADD MSTORE PUSH14 0x1C1D5B1B081A5B8819985A5B1959 PUSH1 0x92 SHL PUSH1 0x44 DUP3 ADD MSTORE PUSH1 0x64 SWAP1 REVERT JUMPDEST PUSH2 0x46A SWAP2 POP DUP9 RETURNDATASIZE DUP11 GT PUSH2 0x3AC JUMPI PUSH2 0x39E DUP2 DUP4 PUSH2 0x580 JUMP JUMPDEST DUP9 PUSH2 0x286 JUMP JUMPDEST DUP7 MLOAD RETURNDATASIZE DUP6 DUP3 RETURNDATACOPY RETURNDATASIZE SWAP1 REVERT JUMPDEST PUSH1 0x20 PUSH1 0x64 SWAP3 MLOAD SWAP2 PUSH3 0x461BCD PUSH1 0xE5 SHL DUP4 MSTORE DUP3 ADD MSTORE PUSH1 0x8 PUSH1 0x24 DUP3 ADD MSTORE PUSH8 0x646561646C696E65 PUSH1 0xC0 SHL PUSH1 0x44 DUP3 ADD MSTORE REVERT JUMPDEST PUSH1 0x20 PUSH1 0x64 SWAP3 PUSH3 0x461BCD PUSH1 0xE5 SHL DUP4 MSTORE DUP3 ADD MSTORE PUSH1 0xD PUSH1 0x24 DUP3 ADD MSTORE PUSH13 0x189859081C9958DA5C1A595B9D PUSH1 0x9A SHL PUSH1 0x44 DUP3 ADD MSTORE REVERT JUMPDEST DUP4 DUP1 REVERT JUMPDEST PUSH1 0x4 CALLDATALOAD SWAP1 PUSH1 0x1 PUSH1 0x1 PUSH1 0xA0 SHL SUB DUP3 AND DUP3 SUB PUSH2 0x4F1 JUMPI JUMP JUMPDEST PUSH1 0x0 DUP1 REVERT JUMPDEST PUSH1 0x24 CALLDATALOAD SWAP1 PUSH1 0x1 PUSH1 0x1 PUSH1 0xA0 SHL SUB DUP3 AND DUP3 SUB PUSH2 0x4F1 JUMPI JUMP JUMPDEST PUSH1 0x64 CALLDATALOAD PUSH1 0x1 PUSH1 0x1 PUSH1 0xA0 SHL SUB DUP2 AND DUP2 SUB PUSH2 0x4F1 JUMPI SWAP1 JUMP JUMPDEST PUSH1 0x4 CALLDATALOAD PUSH1 0x1 PUSH1 0x1 PUSH1 0xA0 SHL SUB DUP2 AND DUP2 SUB PUSH2 0x4F1 JUMPI SWAP1 JUMP JUMPDEST PUSH1 0x24 CALLDATALOAD PUSH1 0x1 PUSH1 0x1 PUSH1 0xA0 SHL SUB DUP2 AND DUP2 SUB PUSH2 0x4F1 JUMPI SWAP1 JUMP JUMPDEST PUSH1 0x60 DUP2 ADD SWAP1 DUP2 LT PUSH8 0xFFFFFFFFFFFFFFFF DUP3 GT OR PUSH2 0x56A JUMPI PUSH1 0x40 MSTORE JUMP JUMPDEST PUSH4 0x4E487B71 PUSH1 0xE0 SHL PUSH1 0x0 MSTORE PUSH1 0x41 PUSH1 0x4 MSTORE PUSH1 0x24 PUSH1 0x0 REVERT JUMPDEST SWAP1 PUSH1 0x1F DUP1 NOT SWAP2 ADD AND DUP2 ADD SWAP1 DUP2 LT PUSH8 0xFFFFFFFFFFFFFFFF DUP3 GT OR PUSH2 0x56A JUMPI PUSH1 0x40 MSTORE JUMP JUMPDEST SWAP1 DUP2 PUSH1 0x20 SWAP2 SUB SLT PUSH2 0x4F1 JUMPI MLOAD DUP1 ISZERO ISZERO DUP2 SUB PUSH2 0x4F1 JUMPI SWAP1 JUMP INVALID LOG2 PUSH5 0x6970667358 0x22 SLT KECCAK256 SWAP4 JUMPDEST 0xD 0xDC SIGNEXTEND 0xF NOT PUSH26 0x56CD2DB519D04806F99EF0A9289BF4F7C26CC852166C71186473 PUSH16 0x6C634300081800330000000000000000 "},"methodIdentifiers":{"balanceOf(address)":"70a08231","exactInputSingle((address,address,uint24,address,uint256,uint256,uint256,uint160))":"414bf389","rates(address,address)":"7b0cf44d","setRate(address,address,uint256,uint256)":"a36b7d7f"}},"storageLayout":{"storage":[{"astId":3105,"contract":"contracts/MockUniswapRouter.sol:MockUniswapRouter","label":"rates","offset":0,"slot":"0","type":"t_mapping(t_address,t_mapping(t_address,t_struct(Rate)3098_storage))"}],"types":{"t_address":{"encoding":"inplace","label":"address","numberOfBytes":"20"},"t_bool":{"encoding":"inplace","label":"bool","numberOfBytes":"1"},"t_mapping(t_address,t_mapping(t_address,t_struct(Rate)3098_storage))":{"encoding":"mapping","key":"t_address","label":"mapping(address => mapping(address => struct MockUniswapRouter.Rate))","numberOfBytes":"32","value":"t_mapping(t_address,t_struct(Rate)3098_storage)"},"t_mapping(t_address,t_struct(Rate)3098_storage)":{"encoding":"mapping","key":"t_address","label":"mapping(address => struct MockUniswapRouter.Rate)","numberOfBytes":"32","value":"t_struct(Rate)3098_storage"},"t_struct(Rate)3098_storage":{"encoding":"inplace","label":"struct MockUniswapRouter.Rate","members":[{"astId":3093,"contract":"contracts/MockUniswapRouter.sol:MockUniswapRouter","label":"num","offset":0,"slot":"0","type":"t_uint256"},{"astId":3095,"contract":"contracts/MockUniswapRouter.sol:MockUniswapRouter","label":"den","offset":0,"slot":"1","type":"t_uint256"},{"astId":3097,"contract":"contracts/MockUniswapRouter.sol:MockUniswapRouter","label":"set","offset":0,"slot":"2","type":"t_bool"}],"numberOfBytes":"96"},"t_uint256":{"encoding":"inplace","label":"uint256","numberOfBytes":"32"}}}}}}