{
  "_format": "hh-sol-artifact-1",
  "contractName": "MockUniswapRouter",
  "sourceName": "contracts/MockUniswapRouter.sol",
  "abi": [
    {
      "inputs": [
        {
          "internalType": "address",
          "name": "token",
          "type": "address"
        }
      ],
      "name": "balanceOf",
      "outputs": [
        {
          "internalType": "uint256",
          "name": "",
          "type": "uint256"
        }
      ],
      "stateMutability": "view",
      "type": "function"
    },
    {
      "inputs": [
        {
          "components": [
            {
              "internalType": "address",
              "name": "tokenIn",
              "type": "address"
            },
            {
              "internalType": "address",
              "name": "tokenOut",
              "type": "address"
            },
            {
              "internalType": "uint24",
              "name": "fee",
              "type": "uint24"
            },
            {
              "internalType": "address",
              "name": "recipient",
              "type": "address"
            },
            {
              "internalType": "uint256",
              "name": "deadline",
              "type": "uint256"
            },
            {
              "internalType": "uint256",
              "name": "amountIn",
              "type": "uint256"
            },
            {
              "internalType": "uint256",
              "name": "amountOutMinimum",
              "type": "uint256"
            },
            {
              "internalType": "uint160",
              "name": "sqrtPriceLimitX96",
              "type": "uint160"
            }
          ],
          "internalType": "struct MockUniswapRouter.ExactInputSingleParams",
          "name": "params",
          "type": "tuple"
        }
      ],
      "name": "exactInputSingle",
      "outputs": [
        {
          "internalType": "uint256",
          "name": "amountOut",
          "type": "uint256"
        }
      ],
      "stateMutability": "payable",
      "type": "function"
    },
    {
      "inputs": [
        {
          "internalType": "address",
          "name": "",
          "type": "address"
        },
        {
          "internalType": "address",
          "name": "",
          "type": "address"
        }
      ],
      "name": "rates",
      "outputs": [
        {
          "internalType": "uint256",
          "name": "num",
          "type": "uint256"
        },
        {
          "internalType": "uint256",
          "name": "den",
          "type": "uint256"
        },
        {
          "internalType": "bool",
          "name": "set",
          "type": "bool"
        }
      ],
      "stateMutability": "view",
      "type": "function"
    },
    {
      "inputs": [
        {
          "internalType": "address",
          "name": "tokenIn",
          "type": "address"
        },
        {
          "internalType": "address",
          "name": "tokenOut",
          "type": "address"
        },
        {
          "internalType": "uint256",
          "name": "numerator",
          "type": "uint256"
        },
        {
          "internalType": "uint256",
          "name": "denominator",
          "type": "uint256"
        }
      ],
      "name": "setRate",
      "outputs": [],
      "stateMutability": "nonpayable",
      "type": "function"
    }
  ],
  "bytecode": "0x60808060405234610016576105f0908161001c8239f35b600080fdfe608060409080825260048036101561001657600080fd5b600091823560e01c908163414bf3891461020d5750806370a08231146101725780637b0cf44d1461010c5763a36b7d7f1461005057600080fd5b34610108576080366003190112610108576100696104db565b906100726104f6565b906064359081156100dd5750846002939495519261008f8461054e565b604435845260208401928352818401956001875260018060a01b0380911688528760205282882091168752602052852091518255516001820155019051151560ff8019835416911617905580f35b606490602087519162461bcd60e51b83528201526005602482015264064656e3d360dc1b6044820152fd5b5080fd5b8284346101085780600319360112610108578060609261012a6104db565b6101326104f6565b9060018060a01b0380911683528260205283832091168252602052209081549160ff60026001830154920154169082519384526020840152151590820152f35b509134610108576020928360031936011261020957836001600160a01b036101986104db565b169160248451809481936370a0823160e01b835230908301525afa9283156101fe5780936101c9575b505051908152f35b909192508382813d83116101f7575b6101e28183610580565b810103126101f45750519038806101c1565b80fd5b503d6101d8565b8251903d90823e3d90fd5b8280fd5b918491506101003660031901126104d7576001600160a01b03928361023061050c565b16156104a75750608435421161047a5782610249610522565b168460a43584516323b872dd60e01b8152338582015260249330858301528260448301528160648160209b8c945af1908115610470578391610453575b50156104205785610295610522565b168252818752848220866102a7610538565b16835287528482208551916102bb8361054e565b8682549384815260ff60026001860154958d8401968752015416151591829101526000146104175782810292818404149015171561040557519081156103f35704945b60c43586106103be578681610311610538565b1691604461031d61050c565b858951958694859363a9059cbb60e01b8552168a8401528b898401525af19182156103b35791610386575b501561035657505051908152f35b600d9085606494519362461bcd60e51b85528401528201526c1c185e5bdd5d0819985a5b1959609a1b6044820152fd5b6103a69150863d88116103ac575b61039e8183610580565b8101906105a2565b86610348565b503d610394565b8551903d90823e3d90fd5b845162461bcd60e51b81528085018890526010818501526f1a5b9cdd59999a58da595b9d081bdd5d60821b6044820152606490fd5b5050634e487b7160e01b815260128352fd5b5050634e487b7160e01b815260118352fd5b915050946102fe565b845162461bcd60e51b8152808501889052600e818501526d1c1d5b1b081a5b8819985a5b195960921b6044820152606490fd5b61046a9150883d8a116103ac5761039e8183610580565b88610286565b86513d85823e3d90fd5b6020606492519162461bcd60e51b83528201526008602482015267646561646c696e6560c01b6044820152fd5b602060649262461bcd60e51b8352820152600d60248201526c189859081c9958da5c1a595b9d609a1b6044820152fd5b8380fd5b600435906001600160a01b03821682036104f157565b600080fd5b602435906001600160a01b03821682036104f157565b6064356001600160a01b03811681036104f15790565b6004356001600160a01b03811681036104f15790565b6024356001600160a01b03811681036104f15790565b6060810190811067ffffffffffffffff82111761056a57604052565b634e487b7160e01b600052604160045260246000fd5b90601f8019910116810190811067ffffffffffffffff82111761056a57604052565b908160209103126104f1575180151581036104f1579056fea2646970667358221220935b0ddc0b0f197956cd2db519d04806f99ef0a9289bf4f7c26cc852166c711864736f6c63430008180033",
  "linkReferences": {},
  "deployedLinkReferences": {}
}